:0200000280007C
:100000000828072039280800352808003528080066
:1000100035280800352808003528080000000000B1
:10002000000000000000000000000000352808006B
:100030003528080000000000352808003528080091
:10004000352808003528080035280800352808001C
:10005000352808003528080035280800352808000C
:100060003528080035280800000000004923080052
:100070002524080001250800DD25080000000000F7
:100080000000000035280800352808003528080041
:1000900035280800352808003528080035280800CC
:1000A0003528080000000000352808003528080021
:1000B00035280800352808003528080035280800AC
:1000C000352808003528080035280800352808009C
:1000D000352808003528080035280800352808008C
:1000E0007D1208003528080035280800352808004A
:1000F0003528080010B5054C237833B9044B13B1EB
:100100000448AFF300800123237010BD8806072048
:100110000000000008350800084B10B51BB1084866
:100120000849AFF300800848036803B910BD074BC6
:10013000002BFBD0BDE81040184700BF00000000B6
:10014000083508008C06072008350800000000006C
:1001500000207047704700BF70B5074A0023074E64
:10016000074D084C084809491360536033702B70E1
:1001700023700370884770BDB8060720C0060720AB
:10018000B0060720A5060720A4060720BD29080001
:1001900008B5014B984708BDC929080010B50349A7
:1001A000034A044B044C0548A04710BDB006072085
:1001B0001C010720C1010800C11F0800C00607205C
:1001C0000B4B5888020A022A01D00020704710F019
:1001D000FF00FAD1DA88012A00D0704710B405492F
:1001E000054C9A819C60196110465DF8044BF4E758
:1001F000F007072055010800B4060720F0B50C4EA3
:100200000C4D3378002483B02C707BB10A4B0B4A21
:100210000B4F92E803001A4683E80300009721463B
:1002200081200823074F3470B847287003B0F0BD11
:10023000A4060720A5060720A8060720B806072061
:10024000FD010800611C0800F0B583B0EFF31084D5
:10025000B4FA84F4640972B6BFF35F8F344B354D42
:100260009A7800212970AAB1824218D0DA788AB12E
:10027000824253D01A796AB1824251D05A794AB136
:1002800082424FD09A792AB182424DD0DA790AB1AE
:1002900082421DD0002C39D1012003B0F0BD0221D3
:1002A0005A1850784A1C5854981840788E1C072EBB
:1002B00098541F4A0CD090194778C81C07289755A6
:1002C00006D0161876780329165401D0D179917189
:1002D000194FDFF874E03E7801210022DA718EF8C0
:1002E0000010134B002ED5D193E80300134A144B92
:1002F00082E80300DFF854C00093314681200823D0
:100300008EF80060E0473870002CC5D001232B70B8
:10031000BFF35F8F62B6012003B0F0BD0321BFE7DA
:100320000421BDE70521BBE7064A52789A71CFE761
:10033000B8060720F6010720A5060720A806072013
:10034000FD010800BE060720A4060720611C080066
:100350002DE9F04182B0EFF31084B4FA84F464091B
:1003600072B6BFF35F8F324B324D9A7800212970FD
:10037000FAB182423BD0DA78002A4ED0824236D09F
:100380001A79002A4BD0824231D05A79002A48D0BB
:1003900082422CD09A79002A45D0824227D0DA793D
:1003A000002A42D0824222D084BB204602B0BDE85F
:1003B000F0810222DFF888801F4F98F80060012149
:1003C000985439701A4A96B992E803001B4BDFF82B
:1003D00074E083E803001A46CDF800E0314681203E
:1003E0000823DFF864C03E70E04788F8000024B9B5
:1003F0000124204602B0BDE8F08101232B70BFF339
:100400005F8F62B6204602B0BDE8F08101232B70F9
:10041000BFF35F8F62B60024C7E70322CAE7042256
:10042000C8E70522C6E70622C4E70722C2E700BFE5
:10043000B8060720F6010720A4060720A806072013
:10044000A5060720FD010800611C080008B5034A45
:10045000034B907800F07F00984708BDF007072015
:10046000DD190800114B1B681B681A7982421BD9E1
:1004700030B40F4D2B605C881C44A34204D310E0C1
:100480001A7813449C420BD95A78042AF8D19A78E6
:100490008242F5D1DA788A42F2D12B60012001E064
:1004A0002B60002030BC704700207047C406072036
:1004B000D4060720F8B5204F06463B685B6853F822
:1004C0002050EB6898471D4B1B780BB90020F8BDF6
:1004D0003B681B681A79B242F8D919490B605A88EF
:1004E0001A449342F2D21C4603E023781C44A242F1
:1004F00018D96378042BF8D1A378B342F5D1E37807
:100500008342F2D10C600F4E04E06378042B05D0D7
:10051000052B0AD023781C44A242F6D86B68984772
:100520000120F8BD0C600020F8BDA078B0473B6802
:100530001B685A881A44EDE7C4060720D006072036
:10054000D4060720211A0800014B1868704700BF25
:10055000D406072008B5014B984708BD5110080084
:100560002DE9F0411F4D2B78002B33D01E4F3A68F8
:10057000D2F800E09EF8040060B31C4EDFF87480EF
:10058000002433B90134E4B2844223D22B78002B07
:10059000F8D08442F6D2C6F800E0BEF802107144EA
:1005A0007145EFD9734603E01A781344994217D97D
:1005B0005A78042AF8D19A78A242F5D1DA78002A3A
:1005C000F2D120463360C0473B68D3F800E09EF884
:1005D0000400D7E7064A002313802B70BDE8F081A2
:1005E0003360CFE7D0060720C4060720D4060720D3
:1005F000CE060720B504080038B50B4B1B7893B125
:100600000A4D2A681368197969B10024536853F8B0
:1006100024301B691BB198472A6813681979013483
:10062000E4B28C42F2D338BDD0060720C4060720BE
:100630002DE9F84FA44D00222B78AA812A616A6126
:100640001A060BD413F0600F22D003F01F03012B06
:100650007BD0022B37D00020BDE8F88FEC88002C2F
:10066000F9D013F06001F0D113F01F0340F0468180
:100670006B78062B00F09481082B00F0EA81002BA8
:10068000E9D1022CE7D121469048914B984717E0D9
:1006900013F01F0340F08D806B78052B00F0448130
:1006A000092B00F0A480012BD5D1EB88002BD2D1EF
:1006B0006B88012BCFD1854A138823F00203138066
:1006C0000120BDE8F88F834C2378002BC3D0824FE4
:1006D0003B681A681279002ABDD0804D00265B68FD
:1006E00053F82690D9F80C3098472378002BB2D0D5
:1006F0003B681B681A79B242ADD92B605988DFF884
:10070000DC8119448B4204D3A5E71A78134499423B
:1007100016D95A78042AF8D19A78B242F5D1DA7803
:100720008242F2D1D9F808202B6090470028C7D127
:100730003B6801361A68F6B21279B242CFD88AE71E
:10074000C8F800300020BDE8F88F624C2378002BF9
:1007500081D0614F2E79386803681A79B2427FF6EA
:100760007AAFDFF87881C8F80030598819448B4295
:1007700004D370E71A7813449942E1D95A78042ACD
:10078000F8D19A78B242F5D1DA78002AF2D14268EB
:10079000C8F8003052F82690DFF840A1D9F80C30A4
:1007A00098472378002B40F05C812B7803F01F03DF
:1007B0004FE7012B2BD0022B7FF449AF6B78012B35
:1007C00000F0B980032B7FF47EAFEB88002B7FF421
:1007D0007AAF6B88002B7FF476AF2879404B98472F
:1007E0002879404B984700287FF46AAF0DE0EB88EA
:1007F000002B7FF430AF3C4B984730B13B4EAA788A
:1008000033685B7C9A4240F34F812B781DE76B780D
:100810000B2BFAD1EB882F4C002B97D12378002B90
:1008200094D02D4F2E793B68B5F802901B681A7949
:10083000B2428BD9DFF8A480C8F800305A881A4435
:10084000934205D382E719780B449A4240F2A18182
:1008500059780429F7D19978B142F4D1D97800298F
:10086000F1D13046224AC8F80030DFF87080904756
:100870000028CAD02378002BC7D05FFA89F1304610
:100880001C4B98470028C0D0D8F80040DFF868809B
:10089000396823780A681C4453881A44A24207D84E
:1008A00009E0052B00F06D8123781C44A24202D997
:1008B0006378042BF5D14B6853F826301B689847B2
:1008C00000287FF4FDAEA0E7F0070720CE06072042
:1008D000151A0800D0060720C4060720D4060720F2
:1008E000191F0800BD1A0800051A0800D4010720C6
:1008F000B504080065040800551D0800012B29D027
:10090000022B7FF4A4AE6B78002B7FF4DCAE022CBC
:100910007FF4D9AE2879A04B9847A04B2146188088
:100920009F4A18469047CBE6EB88002B7FF493AEA6
:100930009C4B2B61C4E6EB88002B7FF4C4AE6B8824
:10094000002B7FF4C0AE2879974B984700287FF49E
:10095000B7AE5AE76B780A2B7FF457AF012C934C54
:100960007FF4F4AE2378002B3FF4F0AE904B2E7959
:100970001F683B681B79B3427FF6E8AE30468D4B6B
:10098000984700283FF441AF7B6853F82630DB6876
:100990009847894B01211870814A184690478FE685
:1009A0006B881A0A013A0E2A3FF655AE01A151F89A
:1009B00022F000BF470A0800250A0800110A0800B3
:1009C0005706080057060800570608005706080093
:1009D0005706080057060800570608005706080083
:1009E000570608005706080057060800F1090800D6
:1009F000724B986800283FF42EAE4188684B9847A8
:100A0000EB88A9896E4A99427FF65AAE938157E6E0
:100A1000DBB2032B3FF6F9AEDFE813F01D0118013E
:100A20000F01DA00654ADBB21168497C99427FF612
:100A300012AE51685A4A51F8330041889047AB686A
:100A400002225A70DCE75D4A554B106801789847DE
:100A5000D6E7012C7FF4FFAD21465448504B984710
:100A60002EE63B681B681A79B2427FF69EAECAF842
:100A700000305A881A44934204D396E619780B44FE
:100A80009A4278D959780429F8D19978B142F5D1A8
:100A9000D9788142F2D1D9F80820C8F800309047BF
:100AA00000287FF40DAE80E6464B98473F4CAB786C
:100AB0002370002B3FF404AE716803F10053013B37
:100AC00051F833603A4F327901EBC3033B60002A9F
:100AD0003FF4F6ADDFF8F0B0DFF8F0A04FF000091A
:100AE0004A457FF692AECBF800607388DFF8D88075
:100AF0003344B34204D888E632781644B3423DD931
:100B00007278042AF8D1B2784A45F5D1F278002AF1
:100B1000F2D1CBF80060396833780A681E445388F4
:100B20001A44B24206D808E0052B1DD033781E4483
:100B3000B24202D97378042BF6D14B6853F82930AE
:100B40001B68984700283FF460AE3B6809F1010933
:100B50001E685FFA89F932799145BFF4B1AD237807
:100B6000002B3FF452AEBBE7B078F178B288D047A3
:100B70000028D0D149E6C8F8003016E6C8F8006071
:100B800043E6A078E178A288C04700287FF480AED1
:100B90003BE6C8F80030D9E5A91A0800C8060720C6
:100BA000151A08004D040800911B0800D006072004
:100BB000C406072065040800CC060720D4010720DE
:100BC000F007072061050800D4060720551D08001E
:100BD0000A210E46224B0422224C18786080D878D5
:100BE00093F801E09F78042A2081A4F804E0E780CC
:100BF0001C481DD01F79052A478119D05F79062A24
:100C0000878115D09F79072AC78111D0DF79082AFB
:100C100007820DD01F7A092A478209D05F7A0A2AF3
:100C2000878205D09F7A0C2AC78201D1DB7A0383A1
:100C30000C480D4B26709847E2E60C4A094C107898
:100C4000142113460E4609226080C8E71A210E4679
:100C5000074B0C22C0E707480421034B9847CFE617
:100C6000F432080088010720151A08006C010720DB
:100C700078010720A4010720034B01221A70BFF35B
:100C80005F8F62B6704700BFF60107200D4B03224D
:100C900070B41A70EFF3108372B6BFF35F8F0A4C13
:100CA0000A490B4D0122082000262E7022600A609E
:100CB000206008601BB92A70BFF35F8F62B670BCFA
:100CC000704700BFF506072060C10A40F0C10A4026
:100CD000F60107202DE9F047EFF3108372B6BFF35A
:100CE0005F8F5B4E5B490020012230700A60002B51
:100CF00051D0DFF8808198F80030032B55D0564F43
:100D0000564D3A88AC89A41AA4B26CB3DFF8689146
:100D1000072C3ED90023082489F80030A968EFF396
:100D20001080B0FA80F0400972B6BFF35F8F0025E3
:100D30004B4B35701B68464D9B0751D444B1494B12
:100D40000A4412F8011B03F8011BD9B2A142F8D3DF
:100D50003B884549454A1C4401233C800B60136095
:100D6000002861D1BDE8F0874149E8880B88134429
:100D70009BB298420B8039D0DFF8FC9099F800A024
:100D8000BAF1000F32D16B691BB1984700285BD1D3
:100D90003A880123C0E73270BFF35F8F62B6DFF895
:100DA000D48098F80030032BA9D12C4D2B6903B1C6
:100DB0009847EFF3108372B6BFF35F8F2549002089
:100DC0000122307022480A604BB3274A00230221D7
:100DD00011602B616B61AB8188F80030BDE8F08752
:100DE00040BB042388F80030BDE8F087042388F86E
:100DF0000030EFF3108372B6BFF35F8F1A481B49C0
:100E00000024102234700260114C0A60002BA9D11A
:100E100001232370BFF35F8F62B6BDE8F0870270D5
:100E2000BFF35F8F62B6D0E73370BFF35F8F62B6F8
:100E3000BDE8F08701232B70BFF35F8F62B60423F8
:100E400088F80030BDE8F0873C805246AC895FE707
:100E5000F601072020C20A40F6060720F007072007
:100E600030C10A400000182060C10A40F0C10A40A9
:100E7000F2060720F5060720F80607202DE9F047BF
:100E8000411E4C00694A631802EBC3031E7DF5073F
:100E900050D5DD689B689D4200F09A80644E5B1BD4
:100EA000B64656F82070B3F5803F92BF4FEA03492B
:100EB0004FF480334FF000094FEA8008FF05C64425
:100EC0003AD556F820700826C7F30217BE40013EF7
:100ED000334240F0898004EB010C02EBCC0CDCF8CF
:100EE0000470544E4FEA001A3D4456447560EFF3C7
:100EF0001085B5FA85F56D0972B6BFF35F8F4E4F59
:100F00004FF0000A87F800A0D6F80CA01AF0100FD6
:100F10001BD149F02102B260DCF80C004FF00072E6
:100F2000464E18448A40CCF81030CCF80C00B26120
:100F3000002D69D1BDE8F08756F82060C6F3C126C0
:100F4000012E68D049F01409C5E7002D56D1631869
:100F500002EBC303DD689D60DEF800501B7DEE05EB
:100F60001AD59D0718D536490123364A48F801306D
:100F700058F802203449D20348BF344A4FF00104E4
:100F800048BF48F802304FF480532C4A834048F859
:100F900001409361BDE8F087DF07CBD56518ED0010
:100FA00053191E7D55596FF300061E75002DC1D0D3
:100FB000DEF800302144DE0548BF40F0800002EB3F
:100FC000C10291682B46BDE8F04702460020184751
:100FD000174B4FEA80089E4653F82030C644DD0583
:100FE000DCD5B307BFD4D9E7661802EBC606377D58
:100FF00049F008096FF3410737756CE701233B702F
:10100000BFF35F8F62B6A2E701233B70BFF35F8F30
:1010100062B6BDE8F087DEF800700826C7F3021755
:10102000BE40B3423FF657AF8CE700BFD80607205B
:1010300000C10A4000C30A40F601072000C00A4070
:1010400060C10A4030C10A40F0C10A4090C10A4064
:10105000F8B5EFF3108572B6BFF35F8F4F4C0022E7
:101060004F4B2820227098474E4B98474E4B5021AB
:101070004FF4807283F828134FF480205A604B4B52
:1010800098474B4BD3F80028194622F08072C3F8DA
:101090000028D3F8002842F00072C3F80028D3F8E3
:1010A000002822F08072C3F80028D3F8002842F408
:1010B0008052C3F80028D3F8002842F40042C3F855
:1010C00000281A6822F480521A601A6842F44062BA
:1010D0001A60D3F8002822F48042C3F80028D1F81F
:1010E0000438334A5804FAD532480221037DC2F845
:1010F0000818D2F8046803F0FE036FF38203037547
:1011000033052B4B48BFC2F80C18D3F800282A49E6
:1011100042F00202C3F80028D3F8002842F48042CB
:10112000C3F800280878D0B9244A254FD37801267F
:10113000FF2B38700E7011D0EFF3108372B6BFF32F
:101140005F8FD17820700131D170144A6BB125B90D
:1011500001232370BFF35F8F62B6F8BDFEE7184E20
:1011600033783BB900233370F1E71670BFF35F8F1C
:1011700062B6ECE7114A937873B1EFF3108372B65D
:10118000BFF35F8F91780020013920709170002BA0
:10119000E8D10C4B9847E5E7FEE700BFF6010720D2
:1011A000B12708008120080000E100E011280800B4
:1011B00000C00A40D8060720F0060720E8070720ED
:1011C000F4060720790C0800F0B5EFF3108472B62E
:1011D000BFF35F8F254D26482E780023037076B32A
:1011E000244B012219462A70D3F8002822F48042A9
:1011F000C3F80028D1F804281E4B5204FAD5196808
:10120000082721F480710122102504264FF0020ED8
:1012100019609F619A619D619E619F609E60C3F8A5
:1012200008E0DA609D60D3F8001841F48041C3F80B
:1012300000181CB90270BFF35F8F62B6F0BD0E4A92
:101240009378FF2B10D0EFF3108372B6BFF35F8F4C
:101250009178067001319170002BC1D10123037088
:10126000BFF35F8F62B6BBE7FEE700BFF40607205F
:10127000F601072000C00A40E80707202DE9F041E9
:10128000934B984720B9934B5B6813F0010349D007
:10129000904B5A68550708D504229A60D3F8043851
:1012A00013F4405F3AD0BDE8F0815A68940733D414
:1012B0005B68D8043DD5884B08211020874A186008
:1012C00019601368590700F170811368DA0704D5B3
:1012D000834B1B68DB0700F1E180804B1A6897079E
:1012E00000F194811A68160700F189801A68D40603
:1012F0001FD57C4A102111601B689807D3D47A4B04
:101300001B78012B00F0D282042BCCD1774B4FF409
:1013100000221A60BDE8F08102229A60744B98475F
:10132000BDE8F08172B6BFF35F8F724A1370BDE8FB
:10133000F081684B1A69920103D55A68910100F156
:10134000B180644B1B699A042FD4624A536813F02E
:10135000080340F087811169C90700F182805D4A66
:101360001369DE0640F1DE805368DD0640F1DA8065
:10137000D2F80018134621F48041C2F8001802E0A8
:101380005A68D40703D4D3F804285004F8D5514B35
:1013900010220125584C5A619D612678002E00F0DC
:1013A0006E8201232370BDE8F081544B1B68DB077C
:1013B00032D5534B1B68DE072ED5524A524C0121C1
:1013C0004FF48040514B1160216010601A7DD407AA
:1013D0007FF569AF1C686FF300021A75002C3FF4AB
:1013E00062AF4B4A99681368002013F4807F08BFEE
:1013F00001222346BDE8F04118BF81221847394A2F
:10140000082111601B68DD073FF54DAF364B1B7897
:10141000032B7FF448AF79E7384B1B68DF0494D582
:10142000374B1B68C3F30133002B8ED1354C294A4F
:101430004FF480564FF40051354D344826605161C9
:101440002A68047D334963F3820422F400724FF466
:1014500000264FF480232A6004750E600B60BDE8FF
:10146000F0815168CF077FF57AAFD2F800180124D8
:1014700021F480411020C2F8001854619061D2F824
:1014800000181D4C41F48041C2F800182278002A4F
:1014900040F03F8200232370BDE8F0811E4B984747
:1014A000BDE8F0811D4AD168CD073FF5FCAE4FF095
:1014B00000715961D3681A0C04D01449CB689B1A87
:1014C000CB608B600120164B9847BDE8F08100BFD0
:1014D0002528080000C00A4020C20A4030C10A4046
:1014E000C0C10A4060C10A40F5060720F0C10A40A9
:1014F000F9050800F6010720F4060720C4C10A40D8
:1015000034C10A4024C20A4064C10A40D8060720F8
:1015100004C10A40F4C10A40D50C080010C30A40B7
:101520007D0E0800A34BD3F8042891077FF5BBAECE
:10153000D3F80028022122F48042C3F80028C3F81F
:101540000818D3F8002842F48042C3F80028D3F8E2
:10155000042812F4006040F02881D3F80028964C4B
:1015600022F48042C3F800281A6842F480721A609C
:10157000D3F8002842F48042C3F800282378002BD7
:1015800088D08E4A93787BB1EFF3108372B6BFF3A5
:101590005F8F91788A4D013928709170002B7FF40C
:1015A00079AF884B984775E7FEE7874D2B78DBB11D
:1015B000864C236903B19847EFF3108372B6BFF3EB
:1015C0005F8F7F4A824800260121167001601BB997
:1015D0001170BFF35F8F62B67E4A00230221116053
:1015E00023616361A3812B707B4B1B68C3F30A5398
:1015F000082B00F08A807949764B05244FF40020AF
:1016000004222C7008601A60BDE8F0816E4D2A78C3
:10161000012A00F00181022A00F0C080042A00F0B3
:10162000BD806E4B05214FF40022684C29701A6072
:10163000EFF3108372B6BFF35F8F614A64480026F0
:101640000121167001601BB91170BFF35F8F62B684
:10165000604A00230221116023616361A3812B7022
:10166000BDE8F08108215E4B91601A7DD00700F142
:1016700021815C4B98474F4B5B491A6822F07F02EF
:101680001A601A6842F080021A600A6822F4CB528B
:1016900022F01C020A600A6842F002020A60DA695B
:1016A00042F00102DA61EFF3108172B6BFF35F8F8F
:1016B0004A48434A0027042602254FF480541770F5
:1016C000066005609C6121B901231370BFF35F8F31
:1016D00062B6EFF3108372B6BFF35F8F3C4800240D
:1016E00001211470364A01601BB91170BFF35F8F7E
:1016F00062B6364A37483449002302240460136135
:10170000536193810B70BDE8F081384B2F4C93F8F7
:1017100000C0DFF800E1364F364E37483749384AC7
:1017200084F800C09EF800C097F800E0377806788B
:1017300008781178DA79334B84F801C084F802E034
:10174000E77026716071A171E271984700283FF43B
:1017500052AF204B04221A6094F90020002AC0F2F4
:101760000D81E288002A00F0A180274E274C00223C
:10177000012010213280228028701960EFF310833D
:1017800072B6BFF35F8F0E4C144822700160002BBD
:101790007FF489AD0B4B9847BDE8F0810B4C236972
:1017A000002B3FF445AF984742E7194B9847BDE8F7
:1017B000F08100BF00C00A40F4060720E8070720B8
:1017C000F6010720790C0800F5060720F00707202E
:1017D00020C20A4060C10A4030C10A40F0C10A403C
:1017E000D80607206105080000C10A400000182043
:1017F00002001820030018200400182005001820FB
:101800000600182031060800F2060720F606072019
:10181000C911080001001820DFF89CE1644C1B6826
:10182000BEF80010C3F30A53A289C8188242B8BF99
:10183000531A9BB2A66883B14A1E5E48324410F820
:10184000017BC6B29E4202F8017FF8D3194489B2E7
:10185000082BAEF80010584F6DD06369A181002BA2
:101860003AD09847002837D15449554B05244FF4B6
:10187000002002222C7008601A60BDE8F081514AF5
:101880009378FF2B11D0EFF3108372B6BFF35F8F05
:1018900091784D48013106709170002B7FF481AD35
:1018A0000570BFF35F8F62B67BE5FEE7474B984755
:1018B000BDE8F0811C686FF300021A75002C3FF43C
:1018C000D8AE434A99681368012013F4807F0CBF97
:1018D00002468122A047CCE63949022203230A604E
:1018E0002B70EFF3108272B6BFF35F8F334C364824
:1018F00001230825002606700B6023600D6025601B
:10190000002A7FF4D0AC0370BFF35F8F62B6BDE8EE
:10191000F0812C498A786AB1EFF3108272B6BFF376
:101920005F8F8878284D01382B708870002A7FF4EB
:10193000B1AD36E6FEE7274EE08833881C4A0B44FB
:1019400098428ADD93898B4223D01D4B02221021BD
:101950001A601960EFF3108372B6BFF35F8F1A4AF3
:101960001648002414700160002B7FF49CAC012306
:101970001370BFF35F8F62B6BDE8F081154C0E485F
:1019800000230221144A2380038029709047BDE878
:10199000F0815369002B3FF467AF984700283FF46C
:1019A00063AF3988338800220B4433803A80CCE718
:1019B000F007072000001820F6060720F0C10A40B3
:1019C00060C10A40E8070720F60107208D0C0800D7
:1019D00004C10A40F2060720D50C0800084B00F0AD
:1019E0007F001A6822F080021A601A6822F07F02D3
:1019F000104318601A6842F080021A60704700BFF6
:101A000000C00A40024B186800F07F00704700BF1A
:101A100000C00A40014B986099817047F007072089
:101A200000F00F02012A00D97047F8B51B4C0123C2
:101A3000E169934021EA03031948E361551E50F818
:101A400022106E007319174C21F00201DB0040F8E0
:101A50002210E1180F7D4FEA820E17F0010F07D117
:101A6000354404EBC504237D6FF382032375F8BD71
:101A7000BC46E7586FF3000C81F814C0002FEFD07C
:101A80005EF800300120DB0506EB050304EBC30321
:101A900048BF42F080029968B847E1E700C00A40B9
:101AA00000C10A40D8060720034B00F00F0053F88E
:101AB0002000C0F3C0407047C0C10A4000F00F03CF
:101AC000012BF0B5064601D90020F0BD284A52F896
:101AD000232010032CD427495A1E02EB420201EBAB
:101AE000C202117D01F0040404F0FF0504BB11F0F3
:101AF00001011FD1EFF31080B0FA80F0400972B6F7
:101B0000BFF35F8F1C4C2170310615D41B491C4F4D
:101B100051F823201B4D22F400724FF0400E4FF479
:101B2000002641F8232047F823E045F82360C8B990
:101B30000120F0BD2846F0BD134951F8231011F4DF
:101B4000405FE3D0117D4FF48055DFF838E00F4E51
:101B500041F0040105FA03F711754EF82350B761FF
:101B60000028E5D001232370BFF35F8F62B6F0BD7C
:101B7000C0C10A40D8060720F601072000C10A406C
:101B800060C10A40F0C10A4030C10A4000C00A40AA
:101B900000F00F00012801D9002070472DE9F04125
:101BA000431E5D00264CEA1804EBC202117D4E076D
:101BB0002CD42449820051F82010090323D522494E
:101BC000114422481058460608D5214F21484FF0AD
:101BD000400E4FF4802642F807E016501E484FF49E
:101BE00000260E60115841F4007111502B44DB00A7
:101BF0001C44227D1249D00705D5227DCB586FF3B6
:101C00000002227598470120BDE8F0810E46DFF8FA
:101C100038804FF480516FF38206167501FA00FC8C
:101C200048F820104146DFF834E0064FCEF814C0E3
:101C300057F82060820037031144D7D5C1E700BFB1
:101C4000D8060720C0C10A4020C20A4030C10A405D
:101C500060C10A40F0C10A4000C10A4000C00A4009
:101C600000F00F00012801D9002070472DE9F0474E
:101C7000334C0127E46907FA00F525424BD0314C7B
:101C800054F82040240346D400F1FF3C0CFA07F836
:101C9000DFF8B8E008EB0C050EEBC5052E7D06F06D
:101CA000040606F0FF04B6BBEFF31086B6FA86F61C
:101CB000760972B6BFF35F8F95F814A0DFF89090A5
:101CC0001AF0010F89F8004028D12C7D44F001045E
:101CD0002C757EBB08EB0C05ED00089E0EEB050491
:101CE0004FF000094EF805606260A360C4F80C90E4
:101CF000C4F81090E1B9B3FA83F35B0908EB0C0266
:101D00000EEBC202117D63F3410111750E4B984732
:101D10000120BDE8F0870020BDE8F087002EFAD052
:101D200089F80070BFF35F8F62B62046BDE8F08788
:101D30000123E3E789F80070BFF35F8F62B6C9E75C
:101D400000C00A40C0C10A407D0E0800D806072026
:101D5000F60107202DE9F04F00F00F04012C83B0AD
:101D600003D9002003B0BDE8F08F654D0123ED6974
:101D7000A3402B40F5D111F00305F2D0022D40F223
:101D8000A080032DEDD11E465E4DA2F5806755F86B
:101D900024E010F0800FBFB22EF4CB504FEAC121E7
:101DA00014BF4FF4807C4FF0000CB7F57C4F01F46A
:101DB000C05120F01C004FEA840EC0F08480082A35
:101DC00000F2838041F67C12314341EA0C0C4CEA6C
:101DD00003031A4001231043A3404EF805009FB2AD
:101DE0007CB9474AD16989070BD5D169464821F0AA
:101DF0000201D161026843F0020722F00203BFB280
:101E00000360424EDFF8F88000E00124651E4FEACF
:101E1000450C0CEB05013B4A3D4847FA04F34FEAF9
:101E2000840906EBC1014FF0010EDB0701F1100A36
:101E30004A440EFA04FE48443FD59AF8043001F1B2
:101E400008099B466FF3000B8AF804B0D2F800A093
:101E500003F001034AF0020AC2F800A0D8F81CA05F
:101E60004EEA0A0EC8F81CE00068400335D5106839
:101E700040F40070106003B30969D9F80430654478
:101E80005B1AC9F80430126806EBC50ED20556F885
:101E9000352044F080000092DEF808509EF81410BF
:101EA000DEF8042058BF20461A44C1F34001EB1A63
:101EB000184DA84700283FF454AF012CA5D1204667
:101EC00050E7042660E770237CE75300013BB3FA38
:101ED00083F3C3F11C031B0174E70B68002B3FF471
:101EE00040AF12686544D105084A48BF44F08004F9
:101EF00002EBC5050120E96822469847002031E73A
:101F000000C00A4000C10A4004C10A40D8060720A8
:101F100030C10A40611C080000F00F022149F0B4F2
:101F2000214E1701541E4FF0007539444FF4805371
:101F30000027A540756193408F60070673611ED42A
:101F400065002B191948DB00C1180E7DF60701D476
:101F5000F0BC70470E7DC3586FF300060E75002B62
:101F6000F6D013492C4451F8221000EBC404C905E3
:101F700048BF42F08002A1680120F0BC18470D481C
:101F80000D4D0E49930018441D4419444FF400565A
:101F9000036813F4405FD3D02E600B689F04FCD419
:101FA000F6E700BF00C30A4000C00A40D806072079
:101FB00000C10A4030C10A40F0C10A40C0C10A4015
:101FC00070B52D4D2C78260610D404F06004202C1A
:101FD00002D00024204670BD6A780A2A33D00B2A2A
:101FE0002AD0092AF5D1BDE87040184714F06004E2
:101FF00009D0202CEDD16A78022A2DD0032A27D0CF
:10200000012AE6D1EFE76B78062BE3D11B4B144690
:102010009847837A212BDCD16B881B0A212B1FD098
:10202000C27B9A42D5D1AC60038AEA8801249342EC
:1020300028BF1346AB81CDE7EB88002BC9D16B8855
:1020400001240B70C6E76B8801241B0A0370C1E7EB
:102050000124A960AC81BDE70124A860AC81B9E787
:1020600000F10903AB60427AEB880124934228BF58
:102070001346AB81AEE700BFF00707204905080013
:1020800008B5044B98470020034B9847034B9847EB
:1020900008BD00BF99270800F1270800052808009F
:1020A00038B50E480E4DA84700203E210D4B9847ED
:1020B0000D4CA0470028FCD00C4B98470C4B0D4A08
:1020C0000D4C9A62A0470028FCD00C4B102098477A
:1020D0000B4B98470148A84738BD00BF00BD01051C
:1020E00099000720152708006927080079270800AC
:1020F00000060E40013F0D2089270800B926080080
:10210000C5280800174B4FF4004210B50B205A6049
:10211000154CA0470C20A0470D20A0470E20A0473B
:10212000124C4FF060513B20A0474FF060515520BA
:10213000A0474FF060515620A0470D496820A047A6
:102140000C495C20A0470C4A0C4B4FF440710C48E2
:1021500098474FF000612B20A0474FF000612A20E4
:10216000A04710BD501A0E40B12708008D2108006D
:102170007900002801000028010000087D220800E5
:10218000000E0E40C06C7047806C7047430903F529
:10219000001301F0F04203F20773B2F1205F30B494
:1021A0004FEA43234CD029D8B2F1006F13D0B2F1DB
:1021B000805F42D100F01F02012000FA02F25A644F
:1021C0001C6FC90744EA02041C675A604CBF5A6678
:1021D0001A6630BC704700F01F02012000FA02F4BA
:1021E0005C641A6F1D6F2A4022EA0402CD071A6749
:1021F0005C604CBF5C661C6630BC7047B2F1405FEF
:1022000002D0B2F1605F18D100F01F0001228240BD
:1022100001F0040401F06050C9075A644CBF5A66CB
:102220001A6634BB5A65B0F1605F0CBF1A635A631B
:102230001A611A60012030BC7047002030BC704722
:1022400000F01F0001228240CD075A644CBF5A663D
:102250001A6611F00A0F14BF1A625A628C070AD468
:10226000080748BFC3F884205A611A60012030BCB7
:1022700070471A65D7E7C3F88020F5E710B402F07D
:10228000F044B4F1205F034643D022D8B4F1006F8C
:102290000FD0B4F1805F38D14164006FD40740EAB9
:1022A0000100186759600FD4196601205DF8044BCE
:1022B00070474164006F1C6FD20700EA040020EAF7
:1022C000010018675960EFD5596601205DF8044B8D
:1022D0007047B4F1405F02D0B4F1605F15D102F0F5
:1022E000605002F00404D20759644CBF5966196665
:1022F0002CBB5965B0F1605F0CBF1963596319615C
:10230000196001205DF8044B704700205DF8044B14
:1023100070474164D0074CBF5966196612F00A0F26
:1023200014BF1962596294070BD4100748BFC3F851
:1023300084105961196001205DF8044B70471965DC
:10234000D8E7C3F88010F4E770B5324B32489847AD
:10235000324B04463048984710EA04051BD0304CF5
:1023600020680B2818D020692D4E0B281DD0206A1C
:102370002B4E0B2822D0206B294E0B2827D0206C07
:10238000274E0B282CD0206D254E0B2838D0206EE0
:10239000234B0B282DD070BD61680D42E3D0E3685C
:1023A000984763689D43F6D0DDE771690D42DED042
:1023B000F369984773699D43EDD0D8E7716A0D4280
:1023C000D9D0F36A9847736A9D43E4D0D3E7716B21
:1023D0000D42D4D0F36B9847736B9D43DBD0CEE7AF
:1023E000716C0D42CFD0F36C9847736C9D43D2D083
:1023F000C9E7596E2942CED0BDE87040DB6E184760
:10240000716D0D42C3D0F36D9847736D9D43C2D07B
:10241000BDE700BF85210800000E0E40892108009D
:10242000FC06072070B5324B32489847324B0446C1
:102430003048984710EA04051BD0304C20680C281F
:1024400018D020692D4E0C281DD0206A2B4E0C2848
:1024500022D0206B294E0C2827D0206C274E0C2828
:102460002CD0206D254E0C2838D0206E234B0C2804
:102470002DD070BD61680D42E3D0E3689847636872
:102480009D43F6D0DDE771690D42DED0F3699847D0
:1024900073699D43EDD0D8E7716A0D42D9D0F36AD4
:1024A0009847736A9D43E4D0D3E7716B0D42D4D053
:1024B000F36B9847736B9D43DBD0CEE7716C0D4295
:1024C000CFD0F36C9847736C9D43D2D0C9E7596E57
:1024D0002942CED0BDE87040DB6E1847716D0D42C9
:1024E000C3D0F36D9847736D9D43C2D0BDE700BF65
:1024F0008521080000100E4089210800FC060720F5
:1025000070B5324B32489847324B044630489847B2
:1025100010EA04051BD0304C20680D2818D0206923
:102520002D4E0D281DD0206A2B4E0D2822D0206B59
:10253000294E0D2827D0206C274E0D282CD0206D39
:10254000254E0D2838D0206E234B0D282DD070BD80
:1025500061680D42E3D0E368984763689D43F6D015
:10256000DDE771690D42DED0F369984773699D43D9
:10257000EDD0D8E7716A0D42D9D0F36A9847736AF3
:102580009D43E4D0D3E7716B0D42D4D0F36B9847F1
:10259000736B9D43DBD0CEE7716C0D42CFD0F36CF3
:1025A0009847736C9D43D2D0C9E7596E2942CED06B
:1025B000BDE87040DB6E1847716D0D42C3D0F36DFE
:1025C0009847736D9D43C2D0BDE700BF85210800C9
:1025D00000120E4089210800FC06072070B5324B1E
:1025E00032489847324B04463048984710EA040571
:1025F0001BD0304C20680E2818D020692D4E0E2894
:102600001DD0206A2B4E0E2822D0206B294E0E287A
:1026100027D0206C274E0E282CD0206D254E0E285A
:1026200038D0206E234B0E282DD070BD61680D422E
:10263000E3D0E368984763689D43F6D0DDE77169AE
:102640000D42DED0F369984773699D43EDD0D8E71A
:10265000716A0D42D9D0F36A9847736A9D43E4D0FA
:10266000D3E7716B0D42D4D0F36B9847736B9D43E6
:10267000DBD0CEE7716C0D42CFD0F36C9847736C12
:102680009D43D2D0C9E7596E2942CED0BDE87040F3
:10269000DB6E1847716D0D42C3D0F36D9847736DB3
:1026A0009D43C2D0BDE700BF8521080000140E4045
:1026B00089210800FC06072015490B6B23F07003E5
:1026C000184308638B6E1B0758BF4FF4006302D595
:1026D00004E0013B17D08A6E1007FAD50C490B6B4A
:1026E00023F0030343F002030B63886E10F008002D
:1026F00008BF4FF4006302D007E0013B03D08A6EAD
:102700001207FAD57047012070470020704700BFBC
:1027100000060E40C8B9114A09021046136A89B270
:1027200023F45C1323F0030343F45C1343F001032D
:102730000B431362836E094ADB07FBD5136A43F030
:102740009B7343F48033136270470449044A086A58
:10275000044B024013430B62704700BF00060E405B
:10276000FCFFC8FE02003701024B986E00F4803077
:10277000704700BF00060E40024B4FF000529A62B5
:10278000704700BF00060E40024B986E00F002003A
:10279000704700BF00060E40044B4FF444111A4628
:1027A000D961936E5B06FCD5704700BF00060E40F2
:1027B0002C2817D81F280D4908D801238A6983407F
:1027C0001A40934210D00B6100207047203801233B
:1027D000D1F8082183401A40934205D0C1F8003156
:1027E00000207047012070470020704700060E400F
:1027F000000200F47060024B40F0010098637047E3
:1028000000060E40014B20221A60704700060E4061
:10281000034AC0F31200136F18431067704700BFDC
:1028200000060E40024B187880F00100704700BF90
:102830006C070720FEE700BF1749184808B581421A
:1028400009D0174B984206D2C243134423F0030227
:102850000432144B98471448144B984207D2C24391
:10286000134423F0030204320021114B9847114B0B
:10287000114A23F0604103F1604321F07F01B3F579
:10288000801F916003D2936843F0005393600B4B19
:1028900098470B4B9847FEE70835080000000720D3
:1028A000880607207D3008008806072008080720D2
:1028B000693108000000080000ED00E02D3008003C
:1028C000D529080010B4354A136B03F00303012B1C
:1028D00033D01AD3136AD90140D53149314B0B603B
:1028E0002E48026B02F00302022A47D02B482E4BDF
:1028F000026B02F07002702A17D12C4AA2FB03234C
:102900005B080B605DF8044B7047294B24495B69F9
:1029100013F0800F14BF4FF400434FF4FA431F48E5
:10292000026B02F07002702AE7D0026BC2F302124F
:10293000D3400B605DF8044B7047136ADB011AD477
:1029400017491C480860136A03F07003102B22D04B
:10295000144A202B0CBF13460346E0E71049154BE1
:102960000B60126A02F07002102A11D0202AB7D12F
:102970000C4B0B60B4E70B4B0949D0E7846A826AC1
:10298000C4F30A4000FB0333D2B2B3FBF2F3C6E751
:10299000094B0B60A4E7084BC1E700BF00060E40DF
:1029A000F8010720001BB700001C4E0EABAAAAAA14
:1029B000101A0E4000093D0000127A00014B012060
:1029C000187070471C020720014B00221A707047D4
:1029D0001C0207202DE9F04FD14B91B09847D14B05
:1029E00001251D70BFF35F8F62B6CF4EB047CF4B4E
:1029F00000221A705A709A70DA701A715D71CC4C9C
:102A0000B0470B20A0470C20A0470D20A0470E2068
:102A1000A047C84BAB469847DFF828A3DFF82893B8
:102A2000DAF80C30D9F808205C0904F50014D9F85C
:102A3000003004F2077401945909DAF80C40D9F80F
:102A4000043001F5001101F2077104F01F04069132
:102A50000BFA04F45B09059403F50013069CD9F8FE
:102A6000001003F207730793640252099AE8804149
:102A70000B944FEA5815079C02F5001201F01F0154
:102A8000D9F80C00D9F8043002F207720BFA01F100
:102A900005F5001508924FEA5E1C0C9105F20775CA
:102AA0006102D9F808206D020D91400908990CF5D2
:102AB000001C08F01F0803F01F0300950BFA03F336
:102AC0000BFA08F500F500100CF2077C0EF01F0E53
:102AD00000F2077002950E934FEA4C254B0202F06C
:102AE0001F020F90039509930BFA0EF50BFA02F3F0
:102AF000D9F80C0004950A93019D0F9B00F01F006C
:102B00005B0208930BFA00F30F938B4B7E0906F5DB
:102B100000160793894B06F2077607F01F074FEA66
:102B2000452E009D76020BFA07F706930B9A0C9B35
:102B300008995361C2F8A0300D9A0E9B804C5361E6
:102B4000C2F8A030099A0A9B5361C2F8A0300F9BCB
:102B50004B61D9F81020C1F8A030530903F50013D8
:102B600002F01F0203F207730BFA02F15B025961D4
:102B7000D9F81420C3F8A010530903F5001302F08C
:102B80001F0203F207730BFA02F15B025961D9F8D5
:102B90001820C3F8A010530903F5001302F01F0218
:102BA00003F207730BFA02F15B025961D9F81C209A
:102BB000C3F8A010530903F5001302F01F0203F23B
:102BC00007730BFA02F15B025961D9F82020C3F8B0
:102BD000A010530903F5001302F01F0203F207735C
:102BE0000BFA02F15B025961D9F82420C3F8A01056
:102BF000530903F5001302F01F0203F207730BFAE7
:102C000002F15B025961D9F82820C3F8A0105309DA
:102C100003F5001302F01F0203F207730BFA02F12F
:102C20005B025961D9F82C20C3F8A010530903F5B1
:102C3000001302F01F0203F207730BFA02F15B02AA
:102C40005961D9F83020C3F8A010530903F50013D7
:102C500002F01F0203F207730BFA02F15B025961E3
:102C6000D9F83420C3F8A010530903F5001302F07B
:102C70001F0203F207730BFA02F15B025961D9F8E4
:102C80003820C3F8A010530903F5001302F01F0207
:102C900003F207730BFA02F15B025961D9F83C2089
:102CA000C3F8A010530903F5001303F2077302F0F1
:102CB0001F025B020BFA02F25A61C3F8A020079BC5
:102CC000009453F8042F039C19460793530903F506
:102CD000001303F2077302F01F025B020BFA02F209
:102CE0001A61C3F8A0200868DAF81020430903F538
:102CF000001303F2077300F01F0051095B020BFA87
:102D000000F002F01F0258630BFA02F0069A01F578
:102D10000011134601F2077109334902019315E0CE
:102D2000A1200800F601072005210800E807072078
:102D3000B1270800550508001C0207206F0707206F
:102D4000F8010720FC01072020020720029B776181
:102D5000C6F8A0706B61C5F8A030049B6361C4F82D
:102D6000A030059BCEF81430CEF8A0304861DAF8D8
:102D700014C0C1F8A0004FEA5C1303F500130CF077
:102D80001F0C03F207730BFA0CF85B02C3F81480F4
:102D9000DAF818C0C3F8A0804FEA5C1303F50013FB
:102DA0000CF01F0C03F207735B020BFA0CF8C3F86C
:102DB0001480DAF81CC0C3F8A0804FEA5C1303F556
:102DC000001303F207730CF01F0C5B020BFA0CFCF0
:102DD000C3F814C0C3F8A0C0DAF820C04FEA5C13EF
:102DE00003F5001303F207730CF01F0C5B020BFAE0
:102DF0000CFCC3F814C0C3F8A0C0009B53F804CF68
:102E000000934FEA5C1303F5001303F207735B02B0
:102E1000DB6B0CF01F0C0BFA0CFC1CEA030F0CBF55
:102E20000123002302F8013F019B9A428ED1069BA9
:102E3000784A0833934206937FF478AE764C774D08
:102E4000DFF8DC8104F18007A5F120060EE0744B69
:102E500055F8200C1B78002B40F0D8800834BC4279
:102E600005F1200506F120063FF4DAAD2378002BAA
:102E7000EDD06B4B55F8200C1B78002BEED0C0B278
:102E8000684B98476378002B5CD1654B55F81C0C58
:102E90001B78002BE2D0644BC0B29847A37898F817
:102EA000002055F8180C002B5CD1002AD6D05E4BC0
:102EB000C0B298475A4B55F8140C1A78E378002B97
:102EC0005DD1002ACAD0584BC0B29847544B55F830
:102ED000100C1A782379002B5ED1002ABED0524BF9
:102EE000C0B298474E4B55F80C0C1A786379002BFA
:102EF0005FD1002AB2D04C4BC0B29847484B55F82E
:102F0000080C1A78A379002B60D1002AA6D0464B72
:102F1000C0B29847424B55F8040C1A78E379002B5D
:102F200061D1002A9AD0404BC0B298473C4B306ADE
:102F30001A78237A002B62D1002A8FD03A4BC0B284
:102F400098478BE7364B55F81C0C1B78002B85D027
:102F5000344BC0B29847A37898F8002055F8180C65
:102F6000002BA2D0002A3FF479AF2E4BC0B2984775
:102F70002B4B55F8140C1A78E378002BA1D0002ABB
:102F80003FF46CAF274BC0B29847254B55F8100C57
:102F90001A782379002BA0D0002A3FF45FAF214B91
:102FA000C0B298471E4B55F80C0C1A786379002B69
:102FB0009FD0002A3FF452AF1A4BC0B29847184B2B
:102FC00055F8080C1A78A379002B9ED0002A3FF4FC
:102FD00045AF144BC0B29847114B55F8040C1A7802
:102FE000E379002B9DD0002A3FF438AF0D4BC0B2DF
:102FF00098470B4B306A1A78237A002B9CD0002A12
:103000003FF42CAF074BC0B2984727E7064BC0B23E
:10301000984737E7EF070720700707201C330800A1
:103020001C020720510308004902080070B50F4E2A
:103030000F4D761BB61018BF002405D0013455F88B
:10304000043B9847A642F9D10A4E0B4D00F04AFACC
:10305000761BB61018BF002406D0013455F8043B87
:103060009847A642F9D170BD70BD00BFF03408008A
:10307000F0340800F8340800F0340800844641EACF
:10308000000313F0030349D1403A23D30B680360D4
:103090004B6843608B688360CB68C3600B690361D6
:1030A0004B6943618B698361CB69C3610B6A0362BE
:1030B0004B6A43628B6A8362CB6AC3620B6B0363A6
:1030C0004B6B43638B6B8363CB6BC363403040318B
:1030D000403ADBD230320BD30B6803604B6843605D
:1030E0008B688360CB68C36010301031103AF3D224
:1030F0000C3205D351F8043B40F8043B043AF9D2B2
:10310000043208D0D2071CBF11F8013B00F8013B84
:1031100001D30B8803806046704700BF082A13D391
:103120008B07B1D010F00303AED0C3F10403D21A61
:10313000DB071CBF11F8013B00F8013BA4D331F8B9
:10314000023B20F8023B9FE7043AD9D3013A11F839
:10315000013B00F8013BF9D20B7803704B784370C8
:103160008B7883706046704770B4840746D0541ED5
:10317000002A41D0CDB2034602E0621EE4B31446F9
:1031800003F8015B9A07F8D1032C2ED9CDB245EA9A
:1031900005250F2C45EA054519D9264603F11002ED
:1031A000103E0F2E42F8105C42F80C5C42F8085CAE
:1031B00042F8045C02F11002F2D8A4F1100222F0ED
:1031C0000F0204F00F041032032C13440DD91E46D5
:1031D0002246043A032A46F8045BFAD8221F22F05A
:1031E00003020432134404F003042CB1C9B21C449A
:1031F00003F8011BA342FBD170BC70471446034681
:10320000C2E700BF024B13B1024800F005B8704797
:103210000000000025320800014600200246034657
:1032200000F016B838B5084B084DED1AAC1018BFB1
:10323000ED1805D0013C55F8043D9847002CF9D114
:10324000BDE8384000F058B90435080008350800DA
:103250002DE9F047254C064625688846D5F84841B3
:1032600092469946C4B360681F2817DC411C76B1AA
:1032700004EB8003C3F888A0D4F88851012282406F
:103280001543022EC4F88851C3F808911ED0831C40
:103290006160002044F82380BDE8F087144B03B33D
:1032A0004FF4C870AFF300800446D0B1D5F8483170
:1032B000002784E888003846C5F848410121C4F851
:1032C0008871C4F88C71002EE1D0D1E7D4F88C312C
:1032D0001A43C4F88C21DAE705F5A674C5F848410D
:1032E000C1E74FF0FF30BDE8F08700BFE0340800D1
:1032F000000000003030303100000000000000000D
:1033000000000000000000000000000000000000BD
:1033100000000000000000000000000000000000AD
:10332000000000000000000000000000000000009D
:103330000000000000000000000000002900000064
:103340002B000000350000001E00000014000000EB
:10335000040000001D00000000000000000000004C
:10336000390000003A0000001F0000001A000000B1
:10337000160000001B000000000000003D000000DF
:103380003C0000003B00000020000000080000009E
:103390000700000006000000000000000000000020
:1033A000000000000000000000000000000000001D
:1033B000000000000000000000000000000000000D
:1033C00000000000000000000000000000000000FD
:1033D00000000000000000000000000000000000ED
:1033E00000000000000000000000000000000000DD
:1033F00000000000000000000000000000000000CD
:1034000000000000000000000000000000000000BC
:1034100000000000000000000000000000000000AC
:10342000000000000000000000000000000000009C
:10343000000000000000000000000000000000008C
:10344000000000000000000000000000000000007C
:10345000000000000000000000000000000000006C
:10346000000000000000000000000000000000005C
:10347000000000000000000000000000000000004C
:10348000000000000000000000000000000000003C
:10349000000000000000000000000000000000002C
:1034A000000000000000000000000000000000001C
:1034B000000000000000000000000000000000000C
:1034C00000000000000000000000000000000000FC
:1034D00000000000000000000000000043000000A9
:1034E00060020720F8B500BFF8BC08BC9E467047D4
:1034F0000532080019010800F8B500BFF8BC08BC87
:083500009E467047F50008002B
:103508001D481E494FF480621D4B02600A601A6A0A
:10351800D00105D41A461B491962936ED907FCD508
:10352800174B194A19461A628B6E154ADB03FBD5ED
:103538001146136B23F0030343F0010313638B6EEF
:103548000F4A1807FBD51146104B93628B6E0C4A35
:103558009B07FBD51146112313638B6E084A180786
:10356800FBD51146122313638B6E1B07FCD5084B42
:10357800084A1A60704700BF000A0E40000C0E404F
:1035880000060E400908370009083701013F0D20E1
:10359800F801072000BD0105194B98421BD9194BAA
:1035A800984211D9184B984222D9184B984218D9E9
:1035B800174B18499842184A94BF4FF480634FF448
:1035C800A0630B60136070471249134A4FF480736D
:1035D8000B60136070470F490F4A00230B6013609C
:1035E80070470C490C4A4FF440730B6013607047E6
:1035F8000849094A4FF400730B601360704700BF15
:10360800BFEA21017FF0FA02FF8FD003FFB3C404A1
:103618007F4A5D05000A0E40000C0E4005010906B0
:10362800A101050719E029E715002501750195088D
:10363800810281011900296515002565750895061F
:103648008100050819012905150025017501950551
:10365800910295039101C0005901080091010800E9
:103668009D01080051010800000000004D6F6465CD
:103678006C4D5553420000004C6577697320506FBC
:103688007274657200000000000300000000000072
:103698000000000000000000000000000000000022
:1036A800000000000403090409022200010100804F
:1036B8003209040000010300010009211101000181
:1036C800223B00070581030800020000A80107202B
:1036D800E0010720E4010720CC01072000000000DA
:1036E80058010720120100020000000866662548FC
:1036F800000101020301010000093D00460000002D
:1037080047000000480000004900000013000000C6
:1037180014000000530000005200000001000000E7
:103728003A0000000E0000000F00000060000000DA
:1037380061000000620000006300000066000000F5
:1037480069000000070000006A0000004100000056
:103758004200000043000000440000004500000053
:10376800000000004C050720B40507201C060720B0
:103778000000000000000000000000000000000041
:103788000000000000000000000000000000000031
:1037980000000000DC340800000000000000000009
:1037A8000000000000000000000000000000000011
:1037B8000000000000000000000000000000000001
:1037C80000000000000000000000000000000000F1
:1037D80000000000000000000000000000000000E1
:1037E80000000000000000000000000000000000D1
:1037F80000000000000000000000000000000000C1
:1038080000000000000000000100000000000000AF
:103818000E33CDAB34126DE6ECDE05000B00000074
:103828000000000000000000000000000000000090
:103838000000000000000000000000000000000080
:103848000000000000000000000000000000000070
:103858000000000000000000000000000000000060
:040000038000283918
:00000001FF
