:0200000280007C
:1000000090280720293A0800213A0800213A0800E0
:10001000213A0800213A0800213A080000000000B7
:10002000000000000000000000000000213A08006D
:10003000213A080000000000213A0800213A080097
:10004000213A0800213A0800213A0800213A080024
:10005000213A0800213A0800213A0800213A080014
:10006000213A0800213A0800000000003536080057
:100070004D360800653608007D3608000000000097
:1000800000000000213A0800213A0800213A080047
:10009000213A0800213A0800213A0800213A0800D4
:1000A000213A080000000000213A0800213A080027
:1000B000213A0800213A0800213A0800213A0800B4
:1000C000213A0800213A0800213A0800213A0800A4
:1000D000213A0800213A0800213A0800213A080094
:1000E0001D130800213A0800213A0800213A0800AF
:1000F000213A080010B5054C237833B9044B13B1ED
:100100000448AFF300800123237010BD00070720CF
:1001100000000000E0460800084B10B51BB108487D
:100120000849AFF300800848036803B910BD074BC6
:10013000002BFBD0BDE81040184700BF00000000B6
:10014000E046080004070720E04608000000000021
:1001500080B483B000AFEFF310833B603B68002BAB
:100160000CBF01230023DBB27B6072B6BFF35F8F4D
:10017000044B00221A707B6818460C37BD465DF8A8
:10018000047B70476802072080B483B000AF7860BA
:100190007B68002B14BF01230023DBB218460C3709
:1001A000BD465DF8047B704780B582B000AF7860D3
:1001B0007868074B98470346002B05D0054B012272
:1001C0001A70BFF35F8F62B60837BD4680BD00BFAF
:1001D000890108006802072080B500AF0A4B0022A1
:1001E0001A700A4B00221A70094B00221A70094833
:1001F00000210822084B9847084B00221A70084B30
:1002000098470346184680BD1C0707202007072093
:10021000300707202807072021410800250707206D
:10022000653E080080B500AF014B984780BD00BF18
:10023000813E080098B500AF04480549054A064BC1
:10024000064CA0470346184698BD00BF1C07072070
:1002500020070720A001072071020800A92B080031
:1002600080B400AF00231846BD465DF8047B70479C
:1002700080B400AF104B5B881B0A9BB2022B14D1D9
:100280000D4B5B88DBB29BB2002B0ED10A4BDB8897
:10029000012B0AD1084B094A9A60074B084A1A6198
:1002A000054B01229A81012300E000231846BD4638
:1002B0005DF8047B704700BF7408072024070720FF
:1002C0002505080080B584B000AF0346FB710C4BD8
:1002D0009847F8600B4B1A78FB79DB43DBB213408D
:1002E000DAB2084B1A70084B01221A70074B984774
:1002F000F868074B9847012318461037BD4680BD64
:10030000510108002807072025070720910408004D
:10031000A901080080B584B000AF0346FB710B4B08
:100320009847F8600A4B1A78FB791343DAB2084B06
:100330001A70084B01221A70074B9847F868074B50
:100340009847012318461037BD4680BD510108006B
:10035000280707202507072091040800A9010800A5
:1003600080B584B000AF0346FB71214B9847B8605D
:100370000223FB7313E0FB7B1E4AD35C002B04D1EA
:10038000B8681D4B984701232EE0FB7B194AD35CCC
:10039000FA799A4200D105E0FB7B0133FB73FB7BCA
:1003A000072BE8D9FB7B082B04D1B868124B984780
:1003B000012319E009E0FB7BFA7B01320D49895CDE
:1003C0000C4AD154FB7B0133FB73FB7B062BF2D928
:1003D000084B0022DA71094B01221A70084B98472A
:1003E000B868054B9847012318461037BD4680BDB5
:1003F0005101080028070720A90108002507072048
:100400009104080080B584B000AF0346FB711B4B1C
:100410009847B8600223FB7313E0FB7B184AD35C58
:10042000002B00D110E0FB7B154AD35CFA799A428D
:1004300004D1B868134B984701231AE0FB7B0133C2
:10044000FB73FB7B072BE8D9FB7B082B04D1B86837
:100450000C4B984700230CE0FB7B0949FA79CA54FE
:10046000094B01221A70094B9847B868054B984709
:10047000012318461037BD4680BD00BF510108005A
:1004800028070720A9010800250707209104080074
:1004900090B583B002AF104B1B78002B01D0002326
:1004A00016E00E4B0E4A92E8030083E803000D4B62
:1004B00000221A700C4B009381200021074A082368
:1004C0000A4CA04703461A46034B1A70024B1B788E
:1004D00018460437BD4690BD300707203407072073
:1004E0002807072025070720F1040800B91D080088
:1004F00080B582B000AF03463960FB711346BB7113
:10050000054B00221A70054B1B78002B01D0044BC1
:1005100098470837BD4680BD3007072025070720CC
:100520009104080080B400AFBD465DF8047B7047BD
:1005300080B400AF024B1846BD465DF8047B70479F
:10054000AC42080080B400AF034B1B681846BD46A0
:100550005DF8047B704700BF4C07072080B400AFF4
:10056000064B1B681B68054A12681268528892B2D3
:1005700013441846BD465DF8047B704748070720C2
:1005800080B584B000AF78600B46FB70124B984783
:10059000F8607B681B781A467B6813447B6011E027
:1005A0007B685B78042B00D110E07B685B78FA787D
:1005B0009A4201D17B680AE07B681B781A467B6807
:1005C00013447B60FA687B689A42E9D80023184696
:1005D0001037BD4680BD00BF5D05080080B584B002
:1005E00000AF03460A46FB711346BB711E4B1B78D6
:1005F000002B01D1002332E01C4B1B681B681B79C8
:10060000FA799A4201D3002329E0184B1B681B6832
:10061000174A1360174B9847F8601AE0144B1B6891
:100620005B78042B0DD1124B1B689B78FA799A42A8
:1006300007D10F4B1B68DB78BA799A4201D10123AD
:100640000DE00B4B1B680A4A126812781344084AE3
:100650001360074B1B68FA689A42DFD800231846DC
:100660001037BD4680BD00BF44070720480707205C
:100670004C0707205D05080080B584B000AF034635
:10068000FB71FB79184600211F4B9847034683F006
:100690000103DBB2002B01D0002330E01B4B1B68B1
:1006A0005A68FB799B0013441B68BB60BB68DB681E
:1006B000984703461A46FB7918461146124B98474D
:1006C000034683F00103DBB2002B01D0002316E0C8
:1006D0000F4B1B68FB60F86805210E4B9847F860CC
:1006E000FB68002B05D100BFBB685B6898470123FE
:1006F00005E0FB689B781846074B9847EBE71846E0
:100700001037BD4680BD00BFDD0508004807072043
:100710004C07072081050800C11A080080B584B085
:1007200000AF03460A46FB711346BB71FA79BB79E9
:10073000104619461C4B9847034683F00103DBB271
:10074000002B01D000232BE0184B1B68FB60F868DE
:100750000521174B9847F860FB68002B0BD100BFB1
:10076000144B1B685A68FB799B0013441B681B6879
:100770009847034614E0FB689978FB68DA78FB68D1
:100780009B889BB2084611461A460B4B9847034676
:1007900083F00103DBB2002B01D0002300E0D6E799
:1007A00018461037BD4680BDDD0508004C07072000
:1007B0008105080048070720C517080080B500AF6D
:1007C000014B984780BD00BFF914080080B582B086
:1007D00000AF0F4B1B78002B10D00023FB7106E0FD
:1007E000FB7918460B4B9847FB790133FB710A4B99
:1007F0001B681B681B79FA799A42F1D3044B0022DB
:100800001A70064B00221A800837BD4680BD00BF13
:100810004407072079060800480707203C070720FF
:1008200080B582B000AF134B1B78002B1FD0002384
:10083000FB7115E0104B1B685A68FB799B00134451
:100840001B681B69002B08D00B4B1B685A68FB798F
:100850009B0013441B681B699847FB790133FB71AC
:10086000054B1B681B681B79FA799A42E2D308375B
:10087000BD4680BD440707204807072080B500AF6C
:10088000064BDB88022B01D0002304E00448022140
:10089000044B98470123184680BD00BF7408072009
:1008A0003C0707209D17080080B500AF0B4BDB8885
:1008B000022B01D000230EE0084B9B88DBB21846C8
:1008C000074B984703469AB2064B1A800548022107
:1008D000054B98470123184680BD00BF74080720C8
:1008E000411B0800500707209D17080080B400AF87
:1008F0000C4BDB88002B01D000230DE0094B5B88FB
:10090000012B08D1084B1B8823F002039AB2064B37
:100910001A80012300E000231846BD465DF8047BE1
:10092000704700BF740807203C07072080B500AF60
:100930000A4BDB88002B01D000230CE0074B5B88BF
:10094000002B07D1054B9B88DBB21846044B984718
:10095000034600E00023184680BD00BF740807204E
:10096000991C080080B400AF094BDB88002B01D034
:10097000002307E0064B5B88012B02D000BF002359
:1009800000E000231846BD465DF8047B704700BFB9
:100990007408072080B500AF0D4BDB88002B01D019
:1009A000002312E00A4B5B88002B0DD1084B9B887B
:1009B000DBB21846074B9847054B9B88DBB21846BD
:1009C000054B9847034600E00023184680BD00BF52
:1009D00074080720C11E08007D1B080080B500AF09
:1009E000044B5B88DBB203F07F03DBB21846024B9B
:1009F000984780BD740807203917080080B400AFFD
:100A0000074BDB88002B01D0002303E0044B054A91
:100A10001A6101231846BD465DF8047B704700BF8C
:100A200074080720DD09080080B584B000AF0023FA
:100A3000FB71294B5B88DBB2032B20D801A252F853
:100A400023F000BF550A08005F0A0800690A080081
:100A5000730A080021480421214B984711E00C2318
:100A6000FB71204BBB600CE00923FB711E4BBB608C
:100A700007E00423FB711D4B9847B86001E0002399
:100A800026E0FB79002B22D00023FB730DE0FB7BDB
:100A9000FA7BB9680A44127891B2154A5B00134494
:100AA0000A465A80FB7B0133FB73FA7BFB799A423F
:100AB000EDD3FB790133DBB25B00DAB20C4B1A7079
:100AC0000B4B1B789BB20A481946054B98470123EC
:100AD00018461037BD4680BD74080720DC0107208A
:100AE0009D170800E0010720F001072031050800EC
:100AF000FC01072080B582B000AF424B5B88FB71E0
:100B0000404B5B881B0A9BB2DBB2013B0E2B67D8C4
:100B100001A252F823F000BF550B08006B0B080030
:100B2000CB0B0800E10B0800E10B0800E10B08000B
:100B3000E10B0800E10B0800E10B0800E10B0800E5
:100B4000E10B0800E10B0800E10B0800E10B0800D5
:100B5000A90B08002C4B1A682B4B1B681B789BB207
:100B600010461946294B98473CE0274B1B685B7C95
:100B7000FA799A4201D300233FE0234B5A68FB796C
:100B8000DB0013441968204B5A68FB79DB001344DF
:100B90001B685B889BB2084619461C4B9847194B4B
:100BA0009B6802225A701DE0174B9B68002B01D1F5
:100BB000002322E0144B9A68134B9B685B889BB21E
:100BC00010461946114B98470CE0114B98470346C5
:100BD00083F00103DBB2002B01D000230DE001E024
:100BE00000230AE0074BDA88064B9B899A4203D21E
:100BF000044BDA88034B9A81012318460837BD4617
:100C000080BD00BF740807205C0207209D17080004
:100C1000290A080080B500AF064BDB88012B01D004
:100C2000002304E004480121044B9847012318469F
:100C300080BD00BF74080720440707209D170800E7
:100C400080B582B000AF274BDB88002B01D000239A
:100C500043E0254B98470346002B01D100233CE09D
:100C6000204B5B88DBB2214A1268527C934201DD43
:100C7000002332E01E4B98471A4B5B88DAB21D4BBB
:100C80001A701C4B1B78002B01D1012325E0174B58
:100C90005A68184B1B7803F10053013BDB001344E7
:100CA000154A13600023FB710FE0FB791846002101
:100CB000124B9847034683F00103DBB2002B01D0AF
:100CC00000230AE0FB790133FB710B4B1B681B68A7
:100CD0001B79FA799A42E8D3012318460837BD46B2
:100CE00080BD00BF740807207D1708005C02072044
:100CF000CD07080044070720480707201D07080004
:100D000080B582B000AF1E4BDB88012B01D00023E1
:100D100032E01C4B1B78002B01D100232CE0184B38
:100D20009B88FB71184B1B681B681B79FA799A42E8
:100D300001D3002320E0FB7918460021134B98478C
:100D4000034683F00103DBB2002B01D0002313E044
:100D50000D4B1B685A68FB799B0013441B683B6072
:100D60003B68DB68984703461A46094B1A700848E7
:100D70000121084B9847012318460837BD4680BD1E
:100D8000740807204407072048070720DD050800EE
:100D9000400707209D17080080B582B000AF144BB4
:100DA000DB88002B01D000231EE0124B1B78002BA8
:100DB00001D1002318E00E4B9B88FB710C4B5B8824
:100DC000BB71FB7918460C4B9847034683F001032F
:100DD000DBB2002B01D0002306E0FA79BB79104684
:100DE0001946064B9847034618460837BD4680BD4E
:100DF0007408072044070720790608001D0708002B
:100E000080B500AF4E4B1B78DBB25BB2002B3FDAF4
:100E10004B4BDB88002B01D100238FE0484B1B7824
:100E200003F01F03002B14D1454B5B78062B08D031
:100E3000082B0AD0002B00D00BE0424B984703460A
:100E40007CE0414B9847034678E0404B9847034687
:100E500074E03B4B1B7803F01F03012B08D1384B88
:100E60005B780A2B00D003E0394B9847034665E0D6
:100E7000334B1B7803F01F03022B5ED1304B5B78A2
:100E8000002B01D000BF58E0324B9847034655E095
:100E90002B4B1B7803F01F03002B2AD1284B5B78C8
:100EA000013B082B24D801A252F823F0D90E0800E8
:100EB000F10E0800E10E0800F10E0800D10E080046
:100EC000F10E0800F10E0800F10E0800E90E08000E
:100ED000214B9847034631E0204B984703462DE0CD
:100EE0001F4B9847034629E01E4B9847034625E0D1
:100EF00000BF134B1B7803F01F03012B08D1104BCD
:100F00005B780B2B00D003E0174B9847034615E0A6
:100F10000B4B1B7803F01F03022B0ED1084B5B78A1
:100F2000012B02D0032B04D007E0104B9847034657
:100F300004E00F4B9847034600E00023184680BDAD
:100F4000740807207D080800F50A0800150C080041
:100F5000010D0800A9080800FD090800ED080800B7
:100F600065090800410C0800990D08002D090800CA
:100F70009509080080B582B000AF204B1B78002B8C
:100F800001D1002336E01E4B9B88FB711D4B1B6873
:100F90001B681B79FA799A4201D300232AE0FB7976
:100FA00018460021184B9847034683F00103DBB233
:100FB000002B01D000231DE0124B1B685A68FB79FF
:100FC0009B0013441B683B603B68DB689847034603
:100FD0001A46FB79184611460B4B9847034683F097
:100FE0000103DBB2002B01D0002303E03B689B68C8
:100FF0009847034618460837BD4680BD440707207A
:101000007408072048070720DD05080080B582B076
:1010100000AF1E4B1B78002B01D1002332E01C4B8C
:101020009B88FB710023FB7124E01A4B1B685A68F4
:10103000FB799B0013441B683B603B68DB68984767
:1010400003461A46FB7918461146134B9847034648
:1010500083F00103DBB2002B01D0002312E03B68D8
:101060009B6898470346002B01D001230AE0FB79D7
:101070000133FB71074B1B681B681B79FA799A4295
:10108000D3D3002318460837BD4680BD4407072048
:101090007408072048070720DD05080080B500AF69
:1010A0001F4B00229A811E4B00221A611C4B00220A
:1010B0005A611B4B1B78DBB25BB2002B05DA184B75
:1010C000DB88002B01D1002327E0154B1B7803F0B0
:1010D0006003002B06D1134B98470346002B01D029
:1010E00001231AE00E4B1B7803F01F03012B06D1DE
:1010F0000D4B98470346002B01D001230DE0084B10
:101100001B7803F01F03022B06D1084B98470346B8
:10111000002B01D0012300E00023184680BD00BF52
:1011200074080720010E0800750F08000D10080054
:1011300080B483B000AF0346FB71084997F90730CC
:101140005B09FA7902F01F02012000FA02F241F86D
:1011500023200C37BD465DF8047B704700E100E0BA
:1011600080B483B000AF03463960FB7197F9073054
:10117000002B0BDA0D49FB7903F00F03043B3A68AF
:10118000D2B21201D2B20B441A7609E0084997F99B
:1011900007303A68D2B21201D2B20B4483F800236E
:1011A0000C37BD465DF8047B704700BF00ED00E0E2
:1011B00000E100E080B483B000AFEFF310833B6048
:1011C0003B68002B0CBF01230023DBB27B6072B6AF
:1011D000BFF35F8F044B00221A707B6818460C37F0
:1011E000BD465DF8047B70476802072080B483B079
:1011F00000AF78607B68002B14BF01230023DBB2B3
:1012000018460C37BD465DF8047B704780B582B048
:1012100000AF78607868074B98470346002B05D0ED
:10122000054B01221A70BFF35F8F62B60837BD46C7
:1012300080BD00BFED1108006802072080B584B0B2
:1012400000AF0346FB71FB790A4AD35CFF2B00D148
:10125000FEE7094B9847F860FB79064AD25C0132F9
:10126000D1B2044AD154F868044B98471037BD46B0
:1012700080BD00BF6C080720B51108000D120800E2
:1012800080B584B000AF0346FB71FB790A4AD35C9A
:10129000002B00D1FEE7094B9847F860FB79064A1E
:1012A000D25C013AD1B2044AD154F868044B984751
:1012B0001037BD4680BD00BF6C080720B51108007F
:1012C0000D12080080B582B000AF0346FB71FB79B8
:1012D00083F00103DBB2002B06D00D4B1B78002BF3
:1012E00002D002200B4B9847FB79002B09D0084B0A
:1012F0001B7883F00103DBB2002B02D00220064BE7
:101300009847034AFB7913700837BD4680BD00BF7C
:1013100052070720811208003D12080080B500AF77
:10132000684B9847034683F00103DBB2002B0CD0D7
:10133000654B5B6803F00103002B06D172B6BFF367
:101340005F8F624B00221A70BAE05F4B5B6803F05C
:101350000403002B0ED05C4B04229A605A4BD3F846
:10136000043803F440531B0B002B02D1584B984711
:10137000A5E0A4E0544B5B6803F00203002B05D00A
:10138000514B02229A60524B984798E0514B984734
:101390000346002B00D092E04F4B98470346002BAA
:1013A00000D08CE0484B5B6803F00803002B0BD0A7
:1013B000454B08229A60494B9847494B9847494BFF
:1013C0009847494B98477AE03F4B1B6903F001036C
:1013D000002B1FD03C4B5B6803F00103002B19D09E
:1013E000394A394BD3F8003823F48043C2F8003827
:1013F000354B01225A61344B10229A61324A324BEA
:10140000D3F8003843F48043C2F800380020374B4B
:10141000984754E02C4B1B6903F01003002B26D097
:10142000294B5B6803F01003002B20D0264A264B83
:10143000D3F8003823F48043C2F8003806E0224B8A
:101440005B6803F00103002B00D006E01E4BD3F8CD
:10145000043803F48043002BF1D01B4B10225A6157
:10146000194B01229A610120204B984727E0164B27
:10147000D3F8043803F00203002B20D0124A124B99
:10148000D3F8003823F48043C2F800380E4B022210
:10149000C3F808280C4A0C4BD3F8003843F48043B7
:1014A000C2F80038084BD3F8043803F40063002B6B
:1014B00002D00F4B984701E00E4B984700BF00BF8A
:1014C00080BD00BFF139080000C00A406802072053
:1014D00021080800B9250800CD290800E1260800E8
:1014E000CD070800651F0800E51F0800C5120800A9
:1014F00059160800F916080080B582B000AF494BB4
:10150000984778602820484B9847484B98472820B0
:101510000521474B98472820464B98474FF4802099
:10152000454B9847454A454BD3F8003823F0807324
:10153000C2F80038414A414BD3F8003843F00073F9
:10154000C2F800383D4A3D4BD3F8003823F0807391
:10155000C2F80038394A394BD3F8003843F4805385
:10156000C2F80038354A354BD3F8003843F400430D
:10157000C2F80038314A314B1B6823F480531360A2
:101580002E4A2E4B1B6843F4406313602B4A2B4BAF
:10159000D3F8003823F48043C2F8003800BF274B4B
:1015A000D3F8043803F48043002BF8D0244B984739
:1015B000224B0222C3F80828204BD3F8043803F446
:1015C0000063002B03D01D4B0222C3F80C281B4ADA
:1015D0001A4BD3F8003843F00203C2F80038174A18
:1015E000164BD3F8003843F48043C2F80038154B4B
:1015F0001B7883F00103DBB2002B09D0114B0122D1
:101600001A70114B00221A700320104B984702E009
:1016100000200F4B984778680E4B98470837BD4617
:1016200080BD00BFB5110800013908001530080061
:101630006111080031110800C539080000C00A40D6
:101640008526080053070720520707203D1208008F
:10165000C51208000D12080080B582B000AF224B01
:10166000984778600120214B9847214A204BD3F8B6
:10167000003823F48043C2F8003800BF1C4BD3F875
:10168000043803F48043002BF8D0194A184B1B6828
:1016900023F480731360164B08229A61144B0122C5
:1016A0009A61134B10229A61114B04229A61104BDC
:1016B00008229A600E4B04229A600D4B02229A6017
:1016C0000B4B0122DA600A4B10229A60084A084B41
:1016D000D3F8003843F48043C2F800387868054BEB
:1016E00098470837BD4680BDB5110800C5120800EF
:1016F00000C00A400D12080080B500AF0C4A0C4B28
:10170000D3F8003823F48043C2F80038084A084B65
:101710001B6843F480731360054A054BD3F8003807
:1017200043F48043C2F800380020024B984780BD44
:1017300000C00A40C512080080B483B000AF034661
:10174000FB710D4A0C4B1B6823F0800313600A49A0
:10175000094B1B6823F07F02FB7903F07F031343DF
:101760000B60054A044B1B6843F0800313600C3781
:10177000BD465DF8047B704700C00A4080B400AFEE
:10178000054B1B68DBB203F07F03DBB21846BD4696
:101790005DF8047B704700BF00C00A4080B483B08E
:1017A00000AF78600B467B80054A7B689360044AF3
:1017B0007B8893810C37BD465DF8047B704700BF82
:1017C00074080720F0B589B002AF0346FB710B46E1
:1017D000BB711346BB80FB7903F08003002B14BF61
:1017E00001230023BB74FB7903F00F03FB71FB792A
:1017F000012B01D9002354E1AC4BDA69FB790121BB
:1018000001FA03F31340002B01D0002349E1BB7917
:1018100003F00303022B09D0032B04D0012B08D1C2
:1018200002237B7507E001237B7504E002237B75AF
:1018300001E0002335E17B7D022B06D0032B07D08E
:10184000012B08D100233B7507E001233B7504E021
:1018500002233B7501E0002323E1FB799B00944ABE
:101860001A44FB799900924B0B441B6823F4CB5329
:1018700023F01C03B979C90201F4C050B97C0029D6
:1018800002D04FF4807100E000210843B988082994
:1018900003D9B988B1F5806F08DAB988082903D966
:1018A000B9884900013903E00F2101E040F2FF71DE
:1018B000B1FA81F1C1F11C0109010843397D8900A8
:1018C00001F00C01084341F67C1101400B43136009
:1018D000FB79012202FA03F3FB820123FB742AE065
:1018E000724BDA69FB7C012101FA03F31340002BF0
:1018F0001ED0FB7C012202FA03F39AB2FB8A134347
:101900009BB2FB826949694BDA69FB7C012000FAD2
:1019100003F3DB431340CB61FB7C9A00644B13441D
:10192000FA7C9100624A0A44126822F002021A60AC
:10193000FB7C013BFB74FA7CFB799A42D0D8FB79A3
:10194000FB74A9E0FA8AFB7C42FA03F303F001037B
:10195000002B00F09E80FB7C5A1E13465B00134454
:10196000DB00544A1344FB60FB681B7DC3F3000398
:10197000DBB2002B14BF01230023FB72FA68137D36
:101980006FF300031375FB7C9A00494B1344FA7CF8
:101990009100474A0A44126842F002021A60434921
:1019A000424BDA69FB7C012000FA03F31343CB615D
:1019B000FB7C9A00404B13441B6803F48023002BEC
:1019C0001BD1FB681B68002B01D1002369E0FB7C65
:1019D0009A00374B13441B6803F48073002B03D029
:1019E000FB7C63F07F03FB74FB681B68FA68D168BB
:1019F000FA7C01209847002353E0FB7C9A002C4B93
:101A00001344FA7C91002A4A0A44126842F4007294
:101A10001A60FB7A002B3CD0FB68DA68FB681B6914
:101A2000D21AFB68DA60FB7C9A00214B13441B68D6
:101A300003F48073002B04D0FB7C63F07F03DBB2E4
:101A400000E0FB7CFA68127DC2F34002D2B2002AA9
:101A500014BF01220022D6B2FA685168FA68D2682F
:101A60008D18FA689168FA68D2688C1AFA68126858
:101A70000092184631462A462346104CA04703469A
:101A8000FB72FB7A83F00103DBB2002B01D0002351
:101A900007E0FB7C0133FB74FB7C012B7FF652AF2C
:101AA000012318461C37BD46F0BD00BF00C00A40E8
:101AB00000C10A405C07072030C10A40B91D080078
:101AC00080B584B000AF0346FB71FB7903F00F03D0
:101AD000FB73FB7B012B00D927E01549144BDA6916
:101AE000FB7B012000FA03F3DB431340CB61FB7B5C
:101AF0009A00104B1344FA7B91000E4A0A44126874
:101B000022F002021A60FB7918460B4B9847FB7BC8
:101B10005A1E0A4913465B001344DB000B4403F1D1
:101B2000100213796FF3820313711037BD4680BD25
:101B300000C00A4000C10A40252708005C070720B2
:101B400080B485B000AF0346FB71FB7903F00F034F
:101B5000FB73FB7B9A00084B13441B6803F40023C0
:101B6000002B14BF01230023DBB218461437BD46F7
:101B70005DF8047B704700BFC0C10A4080B586B0E5
:101B800000AF0346FB71FB7903F00F03FB75FB7D90
:101B90005A1E13465B001344DB00364A13443B6174
:101BA000FB7D012B01D9002360E0FB7D9A00324BC5
:101BB00013441B6803F40023002B06D13B691B7DF3
:101BC00003F00403DBB2002B01D001234EE03B699C
:101BD0001B7D03F00103DBB2002B01D0002345E0A5
:101BE000264B9847F860FB795BB2002B21DAFB7D2E
:101BF0009A00234B13441B6803F440531B0B002B28
:101C000017D03A69137D43F004031375FB7D9A00E6
:101C10001C4B13444FF480521A601B4AFB7D4FF457
:101C2000805101FA03F39361F868184B9847012338
:101C30001CE0FB7D9A00164B1344FA7D9100144A78
:101C40000A44126822F400721A60FB7D9A00114B5C
:101C5000134440221A60FB7D9A000A4B13444FF450
:101C600000221A60F868094B984701231846183774
:101C7000BD4680BD5C070720C0C10A40B511080001
:101C800030C10A40F0C10A4000C00A400D120800ED
:101C900000C10A4060C10A4080B584B000AF03466D
:101CA000FB71FB7903F00F03BB73BB7B5A1E13461A
:101CB0005B001344DB00384A1344BB600023FB7312
:101CC000BB7B012B01D9002362E0BB681B7D03F0C5
:101CD0000403DBB2002B14D0BA68137D6FF38203C8
:101CE0001375BB7B9A002D4B13444FF480521A603E
:101CF0002B4ABB7B4FF4805101FA03F3536101235C
:101D0000FB73BB7B9A00274B13441B6803F400232F
:101D1000002B2AD0BB7B9A00234B13441B6803F093
:101D20004003002B0CD0BB7B9A00204B1344402275
:101D30001A60BB7B9A001E4B13444FF480221A603A
:101D4000BB7B9A00154B13444FF400221A60BB7BF7
:101D50009A00184B1344BA7B9100164A0A44126841
:101D600042F400721A600123FB73FB7B002B0ED040
:101D7000BB681B7D03F00103DBB2002B07D0BA6800
:101D8000137D6FF300031375BB681B68984701232D
:101D900018461037BD4680BD5C07072020C20A40A8
:101DA00000C00A40C0C10A4030C10A4060C10A40B8
:101DB000F0C10A4000C10A4080B586B000AFBA60E9
:101DC0007B600346FB730B46BB73FB7B03F00F0387
:101DD000FB73FB7B012B01D9002360E0FB7B5A1EC8
:101DE00013465B001344DB002F4A13447B612F4BE7
:101DF000DA69FB7B012101FA03F31340002B0FD0BA
:101E0000FB7B9A002A4B13441B6803F40023002B2E
:101E100006D17B691B7D03F00403DBB2002B01D0EC
:101E200000233CE0234B984738617B691B7D03F01E
:101E30000103DBB2002B04D038691F4B9847002305
:101E40002DE07A69137D43F00103137538691A4B4D
:101E500098477B69BA685A607B697A689A607B693F
:101E60000022DA607B6900221A617B693A6A1A6093
:101E7000BB7B002B02D17B68002B01D1012300E04A
:101E80000023DBB203F00103D9B27A69137D61F359
:101E900041031375FB7B1846084B984701231846EE
:101EA0001837BD4680BD00BF5C07072000C00A4050
:101EB000C0C10A40B51108000D120800C92708006A
:101EC00080B584B000AF0346FB71FB7903F00F03CC
:101ED000FB731E4AFB7B013B4FF0007101FA03F3D9
:101EE0005361FB7B1A011A4B134400229A60174A74
:101EF000FB7B4FF4805101FA03F35361FB795BB232
:101F0000002B1BDA10E0FB7B9A00124B13444FF4BA
:101F100000521A6000BFFB7B9A000F4B13441B68F2
:101F200003F40053002BF6D1FB7B9A000B4B1344B8
:101F30001B6803F440531B0B002BE4D1FB791846BC
:101F4000074B98471037BD4680BD00BF00C00A4010
:101F500000C30A40F0C10A40C0C10A4030C10A4073
:101F60002527080080B582B000AF194A184B1B68BE
:101F700023F07F031360164A154B1B6843F0800360
:101F80001360144A134B1B6823F4CB5323F01C0338
:101F90001360104A0F4B1B6843F0020313600C4A96
:101FA0000B4BDB6943F00103D3610B4B984778601F
:101FB0000A4B04221A60094B02221A60044B4FF4A8
:101FC00080529A617868064B98470837BD4680BDB5
:101FD00000C00A4000C10A40B5110800F0C10A4023
:101FE0000D12080080B582B000AF0D4B98477860A5
:101FF0000C4B01221A6078680B4B98470B4B02225E
:102000001A600B4B00221A61094B00225A61084BDF
:1020100000229A81074B00221A700837BD4680BD06
:10202000B511080020C20A400D12080060C10A4024
:10203000740807205407072080B584B000AF3B4BDD
:102040001B78002B03D03A4B98473A4B98473A4BB2
:102050001A683A4B13401B0D082B05D0384B984794
:10206000384B04221A605DE0374BBB600023FB73E2
:102070000AE0FB7B354A1A44BB68591CB9601B78DF
:102080001370FB7B0133FB73FB7B072BF1D92F4BC9
:102090005A882E4B5A802D4B9A882C4B9A802B4B6A
:1020A000DA882A4BDA802A4B9847034683F00103EB
:1020B000DBB2002B05D0224B9847224B04221A603A
:1020C00030E0204B04221A60204B1B78DBB25BB25D
:1020D000002B0BDA1F4B00221A801F4B00221A80A4
:1020E000124B02221A701D4B98471BE0174BDB88DE
:1020F000002B02D11A4B984714E0164B00221A808D
:10210000154B00221A80094B01221A700D4B102228
:102110001A60144B98477860134B10221A60786845
:10212000124B98471037BD4680BD00BF54070720AB
:10213000A1250800E51F080030C10A400000F07F1B
:10214000F124080060C10A4000001820740807202C
:102150009D10080056070720580707207121080026
:1021600015250800B5110800F0C10A400D1208003D
:1021700080B584B000AF464B98473860454B01228C
:102180001A603868444B9847444B1B78032B04D1A2
:10219000434B9847434B984777E0434B9A89434BCF
:1021A0001B88D31AFB81FB89002B27D1404B1A884F
:1021B0003E4B1B8813449AB23D4B1A803A4BDA8847
:1021C0003B4B1B889A4203D03A4B1B78002B02D022
:1021D000394B984759E0344B5B69002B0ED0324B9A
:1021E0005B699847034683F00103DBB2002B05D1FE
:1021F0002E4B00221A802C4B9B89FB81FB89072BDD
:1022000005D90823FB812B4B00221A7002E0294BD1
:1022100001221A70294BBB60234B9B68234A12880A
:1022200013447B601A4B98473860254B1B6803F0BA
:102230000203002B06D03868174B9847174B04222F
:102240001A7022E000237B730AE0BB685A1CBA6054
:102250007A68511C796012781A707B7B01337B732A
:102260007B7B9BB2FA899A42EFD8104B1A88FB8984
:1022700013449AB20D4B1A80124B01221A60124B72
:1022800001221A603868044B98471037BD4680BD5C
:10229000B511080020C20A400D120800540707209B
:1022A000A1250800E51F080074080720580707202B
:1022B0005607072074070720612508000000182032
:1022C00030C10A4060C10A40F0C10A4080B584B004
:1022D00000AF594B1B78012B0FD0574B1B78022BAB
:1022E00003D0554B1B78042B02D1544B984701E087
:1022F000534B9847534B98479BE0534B1A68534BAB
:1023000013401B0DBB81524B9B891A46514B1B88B6
:102310001946BB890B449A4205DA4D4B9A894D4BBD
:102320001B88D31ABB814C4BBB60494B9B68494A05
:10233000128813447B600023FB730AE07B685A1CFD
:102340007A60BA68511CB96012781A70FB7B01334D
:10235000FB73FB7B9BB2BA899A42EFD83D4B1A883C
:10236000BB8913449AB23B4B1A80BB89082B0AD114
:10237000374BDB881A46394B1B881946354B1B886F
:102380000B449A421CDC334B1A88314B9A81304BF8
:102390005B69002B0ED02E4B5B699847034683F098
:1023A0000103DBB2002B05D0254B98472C4B0222B2
:1023B0001A603EE02A4B02221A602A4B984738E006
:1023C000234B9A89234B1B889A4223D1204B5B696C
:1023D000002B05D11A4B9847214B02221A6028E0A6
:1023E0001B4B5B699847034683F00103DBB2002B6C
:1023F00005D0134B98471A4B02221A6019E0174B6D
:102400001A88144B1B8813449AB2144B1A80114B30
:1024100000221A80124B02221A60114B10221A60FD
:10242000114B98473860114B10221A603868104BD6
:1024300098471037BD4680BD54070720A1250800E6
:10244000F1240800E51F080030C10A400000F07FB9
:102450007408072058070720000018205607072097
:1024600060C10A4015250800B5110800F0C10A40F6
:102470000D12080080B500AF0B4B1B6803F0020380
:10248000002B00D00EE0094B1B78012B02D1084B2A
:10249000984707E0054B1B78042B03D1054B4FF4FD
:1024A00000221A6080BD00BF30C10A4054070720D7
:1024B00015250800F0C10A4080B400AF094B1B6825
:1024C00003F00103002B00D007E0074B1B78032B20
:1024D00003D1064B4FF400221A60BD465DF8047B21
:1024E000704700BF30C10A4054070720F0C10A40BE
:1024F00080B400AF054B05221A70054B4FF4002243
:102500001A60BD465DF8047B704700BF5407072082
:10251000F0C10A4080B582B000AF0C4B03221A70A4
:102520000B4B984778600B4B01221A600A4B012233
:102530001A60084B08221A60074B08221A60786854
:10254000064B98470837BD4680BD00BF540707209B
:10255000B511080060C10A40F0C10A400D12080020
:1025600080B582B000AF094B04221A70084B98471F
:102570007860084B10221A60074B10221A607868A6
:10258000064B98470837BD4680BD00BF540707205B
:10259000B511080060C10A40F0C10A400D120800E0
:1025A00080B500AF034B1B69002B02D0014B1B69A8
:1025B000984780BD7408072080B500AF274B5B6843
:1025C00003F48053002B01D1002344E0244B10225C
:1025D0001A60234B08221A60224B1B6803F0040385
:1025E000002B03D0204B9847012334E01D4B1B6880
:1025F00003F00103002B09D01C4B1B6803F00103FF
:10260000002B03D01A4B9847012324E0154B1B687D
:1026100003F00203002B03D0164B984701231AE066
:10262000104B1B6803F00803002B06D0124B082246
:102630001A60124B984701230DE00A4B1B6803F008
:102640001003002B06D00C4B10221A600C4B98473D
:10265000012300E00023184680BD00BF00C00A40EF
:1026600020C20A4030C10A4039200800C0C10A40D7
:1026700071210800CD22080060C10A40B924080079
:102680007524080080B483B000AF0023FB711CE008
:10269000FA79124913465B001344DB000B4403F143
:1026A000100213796FF300031371FA790B49134683
:1026B0005B001344DB000B4403F1100213796FF34A
:1026C00082031371FB790133FB71FB79002BDFD09F
:1026D0000C37BD465DF8047B704700BF5C070720E0
:1026E00080B582B000AF0023FB7111E0FA79134688
:1026F0005B001344DB00094A1A44FB790133DBB267
:10270000104601211A46064B9847FB790133FB71AD
:10271000FB79002BEAD00837BD4680BD5C07072057
:102720006127080080B582B000AF0346FB71FB79DA
:1027300003F00F03FB71FB795A1E13465B00134431
:10274000DB00054A1A44FB79104601211A46034B67
:1027500098470837BD4680BD5C0707206127080001
:1027600080B582B000AF78600B46FB701346BB703B
:102770007B681B7D03F00103DBB2002B00D11DE061
:102780007A68137D6FF3000313757B681B68002B59
:1027900000D113E0BB789A000A4B13441B6803F482
:1027A0008073002B03D0BB7863F07F03BB707B6822
:1027B0001B68F8787A689168BA7898470837BD46F8
:1027C00080BD00BF00C10A4080B586B000AF03469F
:1027D000FB7100237B61FB795A1E13465B00134497
:1027E000DB006F4A1344FB60FB681B7D03F00103B1
:1027F000DBB2002B00D1CFE0FB68DA68FB689B6896
:102800009A4200F09080FB689A68FB68DB68D31AF4
:102810003B613B69B3F5803F05D94FF480333B61A1
:1028200000237B6102E03B691B047B61FB799A001A
:102830005C4B13441B6803F48073002B1AD0FB79A4
:102840009A00584B13441B6803F070031B091A4687
:1028500008239340013B1A463B691340002B26D0C6
:102860007B6943F008037B61FA68137D6FF34103D2
:1028700013751CE0FB799A004A4B13441B6803F460
:10288000C053DB0A012B0ED1FB799A00454B134450
:102890001B6803F070031B091A46082393401A466D
:1028A0003B699A4203D37B6943F014037B61FB7954
:1028B0001A013D4B1344FA685168FA68D2680A4419
:1028C0005A607B6943F021037B61384B9847B860BD
:1028D000FB791A01344B1344DB6803F01003002B1F
:1028E0001AD1FB791A01304B13447A699A60FB685C
:1028F000DA683B691A44FB68DA60FB683A691A6176
:102900002B4AFB79013B4FF0007101FA03F393610D
:10291000B868284B98473FE0B868264B9847FB6853
:10292000DA68FB689A60FB799A001E4B13441B68B7
:1029300003F48073002B29D0FB681B7D03F0020396
:10294000DBB2002B22D0FB799A001B4B13440122EF
:102950001A60FB799A00194B13441B6803F4803307
:10296000002B05D0FB799A00154B134401221A6005
:10297000FB799A00134B134401221A600C4AFB792D
:102980004FF4805101FA03F3936105E0FB79F86895
:1029900000211A460C4B98471837BD4680BD00BF32
:1029A0005C07072000C10A4000C30A40B5110800B7
:1029B00000C00A400D12080060C10A4030C10A4040
:1029C00090C10A40F0C10A406127080080B584B078
:1029D00000AF0123FB73C7E0FB7B5A1E13465B006D
:1029E0001344DB00654A1344BB60654B1A69FB7BEB
:1029F000013B4FF0007101FA03F31340002B37D075
:102A00005F4B5A68FB7B013B4FF0007101FA03F307
:102A10001340002B2CD0FB7B1A015A4B1344DB686C
:102A200003F00103002B01D00123A2E0544AFB7BF9
:102A3000013B4FF0007101FA03F35361FB7B1A0174
:102A4000504B1344DB681B0C7B607B68002B09D068
:102A5000BB68DA687B68D21ABB68DA60BB68DA6880
:102A6000BB689A60FB7B1846474B9847012380E080
:102A7000434B1A69FB7B4FF4805101FA03F3134077
:102A8000002B6ED0FB7B9A00404B13441B6803F075
:102A90000103002B23D0FB7B9A003D4B13441B68A2
:102AA00003F00103002B1AD0FB7B9A00394B13442F
:102AB00001221A60FB7B9A00374B134401221A60F3
:102AC000FB7B9A00334B13444FF480421A60FB7B2C
:102AD000B86800211A46314B9847012349E0FB7B37
:102AE0009A002A4B13441B6803F48053002B38D000
:102AF000FB7B9A00264B13441B6803F440531B0BCB
:102B0000002B2ED1FB7B9A00224B13444FF48052B2
:102B10001A601B4AFB7B4FF4805101FA03F35361A7
:102B2000BA68137D6FF382031375FB7B9A001C4B0D
:102B30001344FA7B91001A4A0A44126822F4007284
:102B40001A60FB7B9A00174B13444FF400221A6063
:102B5000FB7B9A00134B13444FF480221A6001232D
:102B600007E0FB7B0133FB73FB7B012B7FF634AF6C
:102B7000002318461037BD4680BD00BF5C07072004
:102B800000C00A4000C30A40C9270800C0C10A406B
:102B900030C10A4020C20A4060C10A4061270800D3
:102BA00000C10A40F0C10A4080B584B000AFF860AF
:102BB000B9607A603B60354B1B78DBB25BB2002BAF
:102BC00030DA324B1B7803F06003002B08D12F4B17
:102BD0005B78062B04D178682D4B9847034650E06C
:102BE0002A4B1B7803F06003202B1BD1274B5B780B
:102BF000022B07D0032B0DD0012B13D13B68984734
:102C000003463EE0214AFB689360204B01229A81F3
:102C1000012336E01D4ABB6893601C4B01229A8158
:102C200001232EE0194B1B78DBB25BB2002B27DBB4
:102C3000164B1B7803F06003202B21D1134B5B78DC
:102C40000A2B07D00B2B0ED0092B19D13B689847C4
:102C5000034616E00D4B5B881B0A9BB2DAB2FB6899
:102C60001A7001230DE0094BDB88002B01D00023F3
:102C700007E0064B5B88DAB2BB681A70012300E0FC
:102C8000002318461037BD4680BD00BF74080720DA
:102C9000952C080080B584B000AF7860204B984731
:102CA00003460933FB60FB685B78212B01D00023CE
:102CB00031E01C4B5B881B0A9BB2DBB2212B0FD18E
:102CC000184AFB689360FB681B789AB2154BDB8847
:102CD000934228BF13469AB2124B9A8101231AE0FD
:102CE000FB689A790F4B5B881B0A9BB2DBB29A4256
:102CF00010D10C4A7B689360FB68B3F807309AB236
:102D0000084BDB88934228BF13469AB2054B9A8141
:102D1000012300E0002318461037BD4680BD00BFE8
:102D2000450508007408072080B582B000AF7860C0
:102D30007B68072B30D801A252F823F0992D0800A8
:102D40005D2D0800652D08006D2D0800752D08000B
:102D50007D2D0800852D08008F2D08000020104BC8
:102D6000984719E001200E4B984715E000200D4BC5
:102D7000984711E010200B4B98470DE02020094B9D
:102D8000984709E000203E21074B984704E00120C6
:102D90003E21054B984700BF0837BD4680BD00BFA8
:102DA0001937080085370800F537080080B582B06C
:102DB00000AF78607B68072B26D801A252F823F079
:102DC000E12D0800E52D0800E52D0800F72D08008D
:102DD000F72D0800F72D0800F72D0800F72D080043
:102DE000012312E00B4B98470346002B14BF01232D
:102DF0000023DBB209E0084B98470346002B14BFC1
:102E000001230023DBB200E0002318460837BD464B
:102E100080BD00BF513708006D38080080B483B012
:102E200000AF78607B68072B25D801A252F823F009
:102E3000512E0800572E08005D2E0800632E080052
:102E4000672E08006B2E08006F2E0800732E0800F6
:102E50004FF4FA4310E04FF400430DE04FF4004309
:102E60000AE0084B08E0084B06E0084B04E0074B7B
:102E700002E0064B00E0002318460C37BD465DF823
:102E8000047B704700093D0000127A00001BB70068
:102E900080B582B000AF0346FB7100BFFB791846D6
:102EA000054B9847034683F00103DBB2002BF5D1B5
:102EB0000837BD4680BD00BFAD2D080080B586B087
:102EC00000AFF8607A603B600B46FB727B68002BBA
:102ED00007D13B68002B04D1FB684FF470021A60E5
:102EE00019E0FB7A18460D4B984702467B68B2FB07
:102EF000F3F37B617B693A6802FB03F37B613B6818
:102F0000013B1A04064B13407A68D2B2134343F4D0
:102F10007C52FB681A601837BD4680BD1D2E080024
:102F20000000FF0780B582B000AF786039603B6871
:102F3000002B08D1084B9847084A7B681B6843F070
:102F40000053936205E0054A7B681B6843F48033B5
:102F5000D3610837BD4680BD8938080000060E40A1
:102F600080B582B000AF78607B68002B03D1054B41
:102F70009847034602E0044B984703461846083733
:102F8000BD4680BDA1380800E538080080B582B094
:102F900000AF0346FB71FB79033B042B08D8FB7998
:102FA0001846054B9847FB791846044B984700E0B4
:102FB00000BF0837BD4680BD292D0800912E0800AE
:102FC00080B582B000AF786000BF7868044B984746
:102FD0000346002BF9D0002318460837BD4680BDB4
:102FE000612F080080B500AF0620044B98470246C9
:102FF0001346DB009B1A5B00184680BD1D2E08009F
:1030000080B500AF024B984703465B08184680BD69
:10301000E52F080080B582B000AF054B984700202F
:10302000044B9847044B984700BF0837BD4680BD06
:10303000BD38080085390800AD39080090B583B067
:1030400000AF1148114B98470620114B98473B1D84
:103050001846062101220E230E4CA0473B1D1846A0
:1030600000210D4B984700200C4B984710200C4B2B
:1030700098470C4B98470C4B984703461846034B10
:1030800098470C37BD4690BD00BD0105D100072013
:103090008D2F0800BD2E0800252F0800C12F080025
:1030A00095360800D13A08000130080080B582B09A
:1030B00000AF78607868024B98470837BD4680BDFE
:1030C0000139080080B500AF0B20064B98470C2053
:1030D000044B98470D20034B98470E20014B98470F
:1030E00080BD00BFAD30080080B500AF164B4FF477
:1030F00000425A60154B98473B204FF06051144BEB
:10310000984755204FF06051114B984756204FF08B
:1031100060510F4B984768200E490D4B98475C2033
:103120000D490B4B98470D484FF440710C4A0D4B1D
:1031300098472B204FF00061054B98472A204FF00D
:103140000061034B984780BD501A0E40C5300800FF
:10315000413308007900002801000028000E0E40CD
:10316000010000087D34080080B485B000AFF8602D
:10317000B9607A607B68002B03D0FB68BA685A6636
:1031800002E0FB68BA681A661437BD465DF8047B36
:10319000704700BF80B487B000AFF860B9607A6054
:1031A000FB687A685A64BB68B3F1805F1FD0B3F1E3
:1031B000805F05D8002B27D0B3F1006F0AD01FE045
:1031C000B3F1405F20D0B3F1605F1DD0B3F1205F59
:1031D0001AD015E0FB681B6F7B61FB681A6F7B6878
:1031E000D9437B690B401A40FB681A6708E0FB680B
:1031F0001B6F7B617A687B691A43FB681A6700BFA3
:10320000FB687A685A6000E000BF1C37BD465DF875
:10321000047B704780B584B000AFF860B9607A6015
:10322000F868B968184B98477B6803F00103F868A1
:10323000B9681A46154B98477B6803F00A03002BC0
:1032400003D0FB68BA681A6202E0FB68BA685A6287
:103250007B6803F00203002B04D0FB68BA68C3F854
:10326000802008E07B6803F00803002B03D0FB6894
:10327000BA68C3F88420FB68BA685A61FB68BA6808
:103280001A601037BD4680BDF5320800693108006C
:1032900080B584B000AFF860B9607A603B60F868D0
:1032A000B968124B9847F868B968BA69104B9847E3
:1032B0003B68002B03D0FB68BA681A6502E0FB6824
:1032C000BA685A657B68002B03D0FB68BA681A633A
:1032D00002E0FB68BA685A63FB68BA681A61FB6867
:1032E000BA681A601037BD4680BD00BFF5320800CD
:1032F0006931080080B483B000AF786039607B68C2
:103300003A685A640C37BD465DF8047B704700BFCD
:1033100080B483B000AF78607B68DB6C18460C37F4
:10332000BD465DF8047B704780B483B000AF786021
:103330007B689B6C18460C37BD465DF8047B704774
:1033400090B587B002AF786039607868464B98478F
:10335000F8603B6803F0F043B3F1205F48D0B3F16D
:10336000205F06D8B3F1006F0AD0B3F1805F23D09D
:1033700072E0B3F1405F47D0B3F1605F44D06BE0DF
:103380007B6803F01F03012202FA03F3F8684FF091
:1033900000611A46354B98477B6803F01F030122F2
:1033A00002FA03F31A463B6803F00103F86811467A
:1033B0001A462F4B984751E07B6803F01F03012208
:1033C00002FA03F3F8684FF080511A46274B9847EA
:1033D0007B6803F01F03012202FA03F31A463B68DD
:1033E00003F00103F86811461A46214B984735E06F
:1033F0007B6803F01F03012202FA03F3F868194601
:103400003A681C4B984729E07B6803F01F030122B0
:1034100002FA03F319463B6803F06053B3F1605FAF
:103420000CBF01230023DBB21A463B6803F0040300
:10343000002B14BF01230023DBB21C463B6803F0C2
:103440000103002B14BF01230023DBB20093F868B3
:103450002346094CA04701E0002300E00123184661
:103460001437BD4690BD00BF613508009531080096
:1034700069310800153208009132080090B587B014
:1034800002AFF860B9607A607B6803F0F043B3F193
:10349000205F2ED0B3F1205F06D8B3F1006F0AD0C1
:1034A000B3F1805F16D04CE0B3F1405F27D0B3F1A9
:1034B000605F24D045E0F8684FF00061BA68244BA3
:1034C00098477B6803F00103F868B9681A46214BF6
:1034D000984738E0F8684FF08051BA681C4B98471D
:1034E0007B6803F00103F868B9681A46194B9847DE
:1034F00029E0F868B9687A68174B984723E07B6839
:1035000003F06053B3F1605F0CBF01230023DBB213
:103510001A467B6803F00403002B14BF0123002329
:10352000DBB21C467B6803F00103002B14BF0123B0
:103530000023DBB20093F868B9682346074CA04724
:1035400001E0002300E0012318461437BD4690BD7A
:1035500095310800693108001532080091320800E1
:1035600080B485B000AF78607B685B0903F5001319
:1035700003F207735B02FB60FB6818461437BD4615
:103580005DF8047B704700BF80B584B000AF786001
:1035900039607868244B9847F8607868234B9847DF
:1035A0000246FB681340FB60FB68002B38D0002309
:1035B000BB6032E01E4ABB681B0113441A683B68BB
:1035C0009A4223D11A4ABB681B0113445A68FB680C
:1035D0001340002B1AD0164ABB681B011344083352
:1035E0005B681349BA6812010A4410681049BA6846
:1035F00012010A445268114698470D4ABB681B01E4
:1036000013445B68DB43FA681340FB60BB6801331B
:10361000BB60BB68062B00D902E0FB68002BC9D158
:103620001037BD4680BD00BF1133080029330800A4
:103630007807072080B500AF02480B21024B98475E
:1036400080BD00BF000E0E408935080080B500AF78
:1036500002480C21024B984780BD00BF00100E406D
:103660008935080080B500AF02480D21024B98470C
:1036700080BD00BF00120E408935080080B500AF44
:1036800002480E21024B984780BD00BF00140E4037
:103690008935080080B485B000AF78601D491D4BA6
:1036A0001B6B23F070027B6813430B634FF40063C2
:1036B000FB6007E0FB68002B01D1012323E0FB68DE
:1036C000013BFB60134B9B6E03F00803002BF1D012
:1036D000104A104B1B6B23F0030343F002031363E8
:1036E0004FF40063FB6007E0FB68002B01D101236E
:1036F00009E0FB68013BFB60064B9B6E03F008038F
:10370000002BF1D0002318461437BD465DF8047B2A
:10371000704700BF00060E4080B483B000AF7860F1
:103720007B68012B07D1084A074B9B6843F0254370
:1037300043F480139360044B044A1A600C37BD466F
:103740005DF8047B704700BF101A0E40080000A50A
:1037500080B400AF094B5B6903F08003002B07D0F6
:10376000074B9B6E03F08003002B01D0012300E088
:1037700000231846BD465DF8047B7047101A0E40C2
:1037800000060E4080B483B000AF7860184A184B32
:103790001B6A43F45C1343F00803136200BF144B2D
:1037A0009B6E03F40033002BF9D01149104B1B6AB8
:1037B00023F45C1323F070037A68134343F45C131F
:1037C0000B6200BF0A4B9B6E03F40033002BF9D051
:1037D000074A074B1B6A23F09B7323F4803343F49F
:1037E0005C1313620C37BD465DF8047B704700BF65
:1037F00000060E4080B483B000AF786039607B680B
:10380000002B08D01649164B1B6A164A1A40164B55
:1038100013430B621EE01249114B1B6A23F45C1325
:1038200023F003033A68120292B2134343F45C1389
:1038300043F001030B6200BF094B9B6E03F00103D1
:10384000002BF9D0064A064B1B6A43F09B7343F4E6
:10385000803313620C37BD465DF8047B704700BFB0
:1038600000060E40FCFFC8FE0200370180B400AF26
:10387000044B9B6E03F480331846BD465DF8047B11
:10388000704700BF00060E4080B400AF034B4FF0FE
:1038900000529A62BD465DF8047B704700060E40F8
:1038A00080B400AF044B9B6E03F002031846BD4684
:1038B0005DF8047B704700BF00060E4080B400AF87
:1038C000074B4FF44412DA6100BF054B9B6E03F0C7
:1038D0004003002BF9D0BD465DF8047B704700BF64
:1038E00000060E4080B400AF044B9B6E03F0400313
:1038F0001846BD465DF8047B704700BF00060E40C9
:1039000080B483B000AF78607B682C2B01D9012391
:103910002FE07B681F2B13D8194B9A697B68012114
:1039200001FA03F31A407B68012101FA03F39A427A
:103930001ED0134A7B68012101FA03F3136117E0DB
:103940007B68203B7B600E4BD3F808217B6801210C
:1039500001FA03F31A407B68012101FA03F39A424A
:1039600006D0074A7B68012101FA03F3C2F800314F
:10397000002318460C37BD465DF8047B704700BF36
:1039800000060E4080B483B000AF7860064A7B68C2
:103990001B0203F4706343F0010393630C37BD46CD
:1039A0005DF8047B704700BF00060E4080B400AF96
:1039B000034B20221A60BD465DF8047B704700BFB0
:1039C00000060E4080B483B000AF78607B68C3F31C
:1039D00012037B600549054B1A6F7B6813430B6725
:1039E0000C37BD465DF8047B704700BF00060E40F3
:1039F00080B400AF094B1B78DBB2002B14BF01234E
:103A00000023DBB283F00103DBB203F00103DBB27E
:103A10001846BD465DF8047B704700BFE8070720E5
:103A200080B400AFFEE700BF80B582B000AF1E4B90
:103A30007B601E4B3B607A683B689A420CD007E083
:103A40003B681A1D3A607A68111D796012681A6025
:103A50003B68174A9342F3D3164B3B6004E03B6844
:103A60001A1D3A6000221A603B68134A9342F6D34B
:103A7000124B7B60124A7B6823F0604323F07F0384
:103A800093607B68B3F1005F09D37B680D4A934272
:103A900005D80B4A0A4B9B6843F0005393600A4BCE
:103AA00098470A4B9847FEE7E046080000000720C9
:103AB00000070720000707208C08072000000800E7
:103AC00000ED00E0FFFF0F20D1400800F93E0800A4
:103AD00080B400AF564B1B6B03F00303032B00F2C3
:103AE0008A8001A252F823F0F93A0800193B080035
:103AF000693B0800693B08004E4B5B6903F080039B
:103B0000002B04D04C4B4FF400421A6073E04A4B38
:103B10004FF4FA421A606EE0454B1B6A03F0807363
:103B2000002B03D0444B454A1A601CE0424B444AE8
:103B30001A603F4B1B6A03F07003102B04D0202B3C
:103B400008D0002B0ED00EE03B4B1B685B003A4ABE
:103B5000136008E0384B1A6813465B001344364A7A
:103B6000136000E000BF46E0314B1B6A03F0807336
:103B7000002B03D0304B314A1A601CE02E4B304AE8
:103B80001A602B4B1B6A03F07003102B04D0202B00
:103B900008D0002B0ED00EE0274B1B685B00264A96
:103BA000136008E0244B1A6813465B001344224A52
:103BB000136000E000BF1E4B1B6B03F00303022BDE
:103BC00015D11B4B9A6A1F4B13401B0C01331A4A29
:103BD000126802FB03F3184A1360154B9B6ADBB2B1
:103BE000154A1268B2FBF3F3134A136002E0124B5A
:103BF000154A1A6000BF0E4B1B6B03F07003702B4D
:103C000008D10D4B1B68114AA2FB03235B080A4A2B
:103C1000136009E0064B1B6B03F070031A09064B97
:103C20001B68D340044A1360BD465DF8047B7047AF
:103C300000060E40101A0E406C020720001BB70051
:103C400000093D000000FF07001C4E0EABAAAAAA07
:103C500080B582B000AF78607868024B984708372B
:103C6000BD4680BD0139080080B500AF0B20064B72
:103C700098470C20044B98470D20034B98470E2083
:103C8000014B984780BD00BF513C080080B48DB007
:103C900000AF78600B46FB707B68FB62FB7887F8AF
:103CA0002B30FB6A7B627B6A3B623B6A5B09FB6190
:103CB000FB6903F5001303F207735B02BB6197F81E
:103CC0002B30012B09D1FB6A7B617B6903F01F0359
:103CD00001229A40BB691A610CE097F82B30002B47
:103CE00008D1FB6A3B613B6903F01F0301229A4044
:103CF000BB695A61FB6AFB60FB6803F01F0301228A
:103D00009A40BB69C3F8A0203437BD465DF8047BF8
:103D1000704700BF80B48BB000AF78600B46FB707B
:103D20007B687B62FB7887F823307B6AFB61FB69E9
:103D3000BB61BB695B097B617B6903F5001303F21F
:103D400007735B023B6197F82330002B09D07B6A35
:103D5000FB60FB6803F01F0301229A403B691A6372
:103D600008E07B6ABB60BB6803F01F0301229A4036
:103D70003B695A632C37BD465DF8047B704700BF32
:103D800080B489B000AF78607B68FB61FB69BB6180
:103D9000BB697B617B695B093B613B6903F5001390
:103DA00003F207735B02DA6BFB69FB60FB6803F0ED
:103DB0001F03012101FA03F31340002B14BF012359
:103DC0000023DBB218462437BD465DF8047B7047FC
:103DD00080B483B000AF0023FB7106E0FB79084A92
:103DE0000021D154FB790133FB71FB79042BF5D908
:103DF000034B01225A710C37BD465DF8047B7047B6
:103E00006C08072080B582B000AF7860074B1B7844
:103E100083F00103DBB2002B00D004E07B68DBB24F
:103E20001846034B98470837BD4680BDD00207208F
:103E30001503080080B582B000AF7860074B1B788F
:103E400083F00103DBB2002B00D004E07B68DBB21F
:103E50001846034B98470837BD4680BDD00207205F
:103E6000C502080080B400AF044B01221A70012380
:103E70001846BD465DF8047B704700BFD00207209E
:103E800080B400AF034B00221A70BD465DF8047B7E
:103E9000704700BFD002072080B582B000AF7860C5
:103EA000074B1B7883F00103DBB2002B00D004E04A
:103EB0007B68DBB21846034B98470837BD4680BD88
:103EC000D00207200504080080B582B000AF7860FA
:103ED000074B1B7883F00103DBB2002B00D004E01A
:103EE0007B68DBB21846034B98470837BD4680BD58
:103EF000D00207206103080080B586B000AF624B96
:103F00009847624B01221A70BFF35F8F62B6604B15
:103F10009847604B98475E4B98475F4B9847002304
:103F20007B610AE05D4A7B6952F823301846002124
:103F30005B4B98477B6901337B617B69072BF1DD24
:103F4000584B984700233B6199E00023FB600AE04F
:103F5000554AFB6852F8233018460021504B9847C9
:103F6000FB680133FB60FB680F2BF1DD4E4A3B69B8
:103F700052F8233018460121494B98474A4A3B6979
:103F800052F8233018460021484B98470023BB6065
:103F90006FE0424ABB6852F823301846444B9847BA
:103FA0000346002B14BF01230023DBB283F001037F
:103FB000DBB2FB71FB7903F00103FB713D493B6907
:103FC000DA00BB6813440B441B78FA799A424DD04F
:103FD00038493B69DA00BB6813440B44FA791A701C
:103FE00034493B69DA00BB6813440B441B78002B4F
:103FF0001ED031493B69DA00BB68134451F82330C5
:10400000002B0AD12D493B69DA00BB68134451F8F3
:10401000233018462A4B984728E028493B69DA00A4
:10402000BB68134451F823301846264B98471DE0CF
:1040300021493B69DA00BB68134451F82330002B57
:104040000AD11E493B69DA00BB68134451F823309A
:1040500018461D4B984709E018493B69DA00BB68D0
:10406000134451F823301846184B9847BB68013366
:10407000BB60BB68072B8CDD3B6901333B613B694F
:104080000F2B7FF762AF5DE73D3008006802072025
:10409000E9300800D13D0800693C0800B002072063
:1040A0008D3C0800BD07080070020720153D080080
:1040B000813D0800EC070720B4440800B442080022
:1040C000993E0800053E0800C93E0800353E08003C
:1040D00070B50F4E0F4D761BB61018BF002405D0DB
:1040E000013455F8043B9847A642F9D10A4E0B4DCE
:1040F00000F0E4FA761BB61018BF002406D0013495
:1041000055F8043B9847A642F9D170BD70BD00BF79
:10411000C8460800C8460800D0460800C84608003F
:1041200070B4840746D0541E002A41D0CDB2034655
:1041300002E0621EE4B3144603F8015B9A07F8D16B
:10414000032C2ED9CDB245EA05250F2C45EA0545AD
:1041500019D9264603F11002103E0F2E42F8105CCA
:1041600042F80C5C42F8085C42F8045C02F1100270
:10417000F2D8A4F1100222F00F0204F00F04103262
:10418000032C13440DD91E462246043A032A46F84E
:10419000045BFAD8221F22F003020432134404F015
:1041A00003042CB1C9B21C4403F8011BA342FBD188
:1041B00070BC704714460346C2E700BF024B13B100
:1041C000024800F005B8704700000000DD4108001B
:1041D000014600200246034600F016B838B5084BE9
:1041E000084DED1AAC1018BFED1805D0013C55F87C
:1041F000043D9847002CF9D1BDE8384000F068BA7A
:10420000DC460800E04608002DE9F047254C06464C
:1042100025688846D5F8484192469946C4B36068F7
:104220001F2817DC411C76B104EB8003C3F888A07B
:10423000D4F88851012282401543022EC4F88851D7
:10424000C3F808911ED0831C6160002044F82380CD
:10425000BDE8F087144B03B34FF4C870AFF3008090
:104260000446D0B1D5F84831002784E888003846A4
:10427000C5F848410121C4F88871C4F88C71002E3A
:10428000E1D0D1E7D4F88C311A43C4F88C21DAE7B5
:1042900005F5A674C5F84841C1E74FF0FF30BDE809
:1042A000F08700BFB8460800000000003030303111
:1042B00000000000000000000000000000000000FE
:1042C00000000000000000000000000000000000EE
:1042D00000000000000000000000000000000000DE
:1042E00000000000000000000000000000000000CE
:1042F00000000000290000002B0000003500000035
:104300001E00000014000000040000001D0000005A
:104310000000000000000000390000003A0000002A
:104320001F0000001A000000160000001B00000023
:10433000000000003D0000003C0000003B000000C9
:104340002000000008000000070000000600000038
:10435000000000000A00000017000000220000001A
:1043600021000000150000000900000019000000F5
:10437000050000003E0000002A000000420000008E
:1043800043000000000000000000000028000000C2
:104390002C0000000B0000001C00000023000000A7
:1043A00024000000180000000D00000010000000B4
:1043B000110000003F000000300000002E0000004F
:1043C000250000000C0000000E0000003600000078
:1043D000000000000000000040000000410000005C
:1043E00026000000120000000F000000370000004F
:1043F00000000000000000002F0000002D00000061
:10440000270000001300000033000000000000003F
:104410003800000000000000000000004C00000018
:1044200044000000000000000000000053000000F5
:1044300051000000000000000000000049000000E2
:10444000000000000000000000000000000000006C
:104450004F00000000000000000000004B000000C2
:104460004E000000000000000000000000000000FE
:104470000000000052000000000000004A000000A0
:104480004D00000000000000000000004800000097
:1044900050000000000000000000000000000000CC
:1044A000460000004700000000000000000000007F
:1044B00000000000000000000000000001000000FB
:1044C00000000000000000001000000000000000DC
:1044D00000000000000000000200000000000000DA
:1044E00000000000000000000000000020000000AC
:1044F00000000000000000000000000000000000BC
:1045000000000000000000000000000000000000AB
:10451000000000000000000000000000000000009B
:10452000000000000000000000000000000000008B
:10453000000000000000000000000000000000007B
:10454000000000000000000000000000000000006B
:10455000000000000000000000000000000000005B
:10456000000000000000000000000000000000004B
:10457000000000000000000000000000000000003B
:10458000000000000000000000000000000000002B
:10459000000000000000000000000000000000001B
:1045A000000000000000000000000000000000000B
:1045B00000000000000000000000000000000000FB
:1045C00000000000000000000000000000000000EB
:1045D00000000000000000000000000000000000DB
:1045E00000000000000000000000000000000000CB
:1045F00000000000000000000000000000000000BB
:1046000000000000000000000000000000000000AA
:10461000000000000000000000000000000000009A
:10462000000000000000000000000000000000008A
:10463000000000000000000000000000000000007A
:10464000000000000000000000000000000000006A
:10465000000000000000000000000000000000005A
:10466000000000000000000000000000000000004A
:10467000000000000000000000000000000000003A
:10468000000000000000000000000000000000002A
:104690000000000004000000000000000000000016
:1046A000000000000000000000000000000000000A
:1046B0004000000043000000D8020720F8B500BF0A
:1046C000F8BC08BC9E467047BD41080019010800AF
:1046D000F8B500BFF8BC08BC9E467047F50008005E
:1046E00080B400AF2A4B4FF480621A60294B4FF41C
:1046F00080621A60284B1B6A03F08073002B09D17B
:10470000254B264A1A6200BF234B9B6E03F0010320
:10471000002BF9D0204B224A1A6200BF1E4B9B6E21
:1047200003F48033002BF9D01B4A1B4B1B6B23F087
:10473000030343F00103136300BF174B9B6E03F0A9
:104740000803002BF9D0144B164A9A6200BF124B93
:104750009B6E03F00203002BF9D00F4B11221A635A
:1047600000BF0D4B9B6E03F00803002BF9D00A4BE2
:1047700012221A6300BF084B9B6E03F00803002B44
:10478000F9D0094B094A1A60BD465DF8047B7047B1
:10479000000A0E40000C0E4000060E4009083700CB
:1047A00009083701013F0D206C02072000BD0105FB
:1047B00080B483B000AF78607B68254A934206D806
:1047C000244B00221A60244B00221A603BE07B68D5
:1047D000224A934208D81F4B4FF480721A601E4B36
:1047E0004FF480721A602EE07B681D4A934208D80D
:1047F000184B4FF400721A60174B4FF400721A6096
:1048000021E07B68174A934208D8124B4FF440725C
:104810001A60114B4FF440721A6014E07B68124A20
:10482000934208D80B4B4FF480621A600A4B4FF446
:1048300080621A6007E0074B4FF4A0621A60064BD3
:104840004FF4A0621A600C37BD465DF8047B7047D8
:10485000BFEA2101000A0E40000C0E407FF0FA0270
:10486000FF8FD003FFB3C4047F4A5D05D901080060
:10487000250208003502080061020800000000005F
:1048800005010906A101050719E029E71500250121
:1048900075019508810281011900296515002565BA
:1048A00075089506810005081901290515002501DF
:1048B00075019505910295039101C0000403090457
:1048C0004C6577697320506F727465720000000048
:1048D0004D6F64656C4D55534200000000030000AD
:1048E00000000000000000000000000000000000C8
:1048F000000000000000000012010002000000089B
:104900006666254800010102030100000902220039
:1049100001010080320904000001030001000921A7
:1049200011010001223B000705810308000200007D
:104930008C0107202C0207205002072018020720B4
:1049400054020720000000000100000000093D00A3
:104950003A0000000E0000000F00000060000000A0
:1049600061000000620000006300000066000000BB
:1049700069000000070000006A000000410000001C
:104980004200000043000000440000004500000019
:1049900046000000470000004800000049000000F9
:1049A000130000001400000053000000520000003B
:1049B000010000000000000000000000C405072006
:1049C0002C060720940607200000000000000000CD
:1049D00000000000000000000000000000000000D7
:1049E000000000000000000000000000B4460800C5
:1049F00000000000000000000000000000000000B7
:104A000000000000000000000000000000000000A6
:104A10000000000000000000000000000000000096
:104A20000000000000000000000000000000000086
:104A30000000000000000000000000000000000076
:104A40000000000000000000000000000000000066
:104A50000000000000000000000000000000000056
:104A600001000000000000000E33CDAB34126DE6F3
:104A7000ECDE05000B00000000000000000000005C
:104A80000000000000000000000000000000000026
:104A90000000000000000000000000000000000016
:104AA0000000000000000000000000000000000006
:104AB00000000000000000000000000000000000F6
:0400000380003A2916
:00000001FF
