S01100004D6F64656C4D5553422E73726563EB
S21408000038270720CD200800C9200800C920080086
S214080010C9200800C9200800C92008000000000000
S214080020000000000000000000000000C9200800D2
S214080030C920080000000000C9200800C9200800E0
S214080040C9200800C9200800C9200800C9200800DF
S214080050C9200800C9200800C9200800C9200800CF
S214080060C9200800C920080000000000DD1E08009E
S214080070F11E0800051F0800191F080000000000F0
S21408008000000000C9200800C9200800C920080090
S214080090C9200800C9200800C9200800C92008008F
S2140800A0C920080000000000C9200800C920080070
S2140800B0C9200800C9200800C9200800C92008006F
S2140800C0C9200800C9200800C9200800C92008005F
S2140800D0C9200800C9200800C9200800C92008004F
S2140800E0E50E0800C9200800C9200800C920080035
S2140800F0C920080010B5054C237833B9044B13B152
S2140801000448AFF300800123237010BD380607208B
S2140801100000000050240800084B10B51BB1084822
S2140801200849AFF300800848036803B910BD074BB9
S214080130002BFBD0BDE81040184700BF00000000A9
S214080140502408003C060720502408000000000041
S214080150704700BF002070470C4B5B881A0A022ABB
S2140801600ED113F0FF0F0DD1084BDB88012B0BD1F6
S214080170064B074A9A60074A1A6101209881704719
S214080180002070470020704700207047200707208F
S2140801905C06072099010800704700BF0023064A3E
S2140801A01370064A1370064A1370064A13605360A3
S2140801B0054A13700120704768060720580607206E
S2140801C055060720600607205406072010B5034882
S2140801D00349044A044B054CA04710BD680607208F
S2140801E0580607202C01072059010800851A080020
S2140801F00F4B1B681A6853881A44037818449042B1
S21408020010D24378042B0FD08B4205D17047437821
S214080210042B0BD08B420AD0037818449042F6D3AE
S2140802200020704700207047002070470020704765
S2140802306C06072008B5034B987800F07F00024B41
S214080240984708BD2007072081140800164B1B781E
S2140802500BB3164B1B681B681A7982421DD910B45B
S214080260134A13605C881C44A34218D25A78042A9E
S21408027009D19A78824206D1DA788A4203D10C4AA2
S214080280136001200CE01A781344A342EED3084A00
S2140802901360002004E0002070470020704700200C
S2140802A05DF8044B704700BF780607206C060720E9
S2140802B07C0607202DE9F84304460021124B984790
S2140802C08046E8B1114B1B685B6853F82490D9F850
S2140802D00C309847014620460B4B9847804678B125
S2140802E00B4B1C6805260B4D0B4F20463146A8477E
S2140802F0044610B18078B847F7E7D9F8043098472D
S2140803004046BDE8F88300BF4D0208006C0607208B
S2140803107C060720F1010800C51408002DE9F04105
S2140803208046104B98470346C8B10F4B1C680526F5
S2140803300E4D0F4F20463146A847044638B1807800
S214080340E178A288B84703460028F3D107E0094BAE
S2140803501B685B6853F828301B689847034618469E
S214080360BDE8F0814D0208007C060720F101080070
S214080370FD1708006C060720014B1868704700BF79
S2140803807C06072008B5014B984708BDCD0C080029
S21408039070B50D4B1B7883B10C4B1B681B681B791B
S2140803A05BB100240A4E094D2046B0470134E4B23A
S2140803B02B681B681B79A342F6D80023024A1370E1
S2140803C0044A138070BD00BF780607206C06072015
S2140803D0B50208007606072038B50C4B1B789BB18B
S2140803E00B4B1B681A68127972B10024084D5B68BB
S2140803F053F824301B6903B198470134E4B22B68DC
S2140804001A681279A242F2D838BD00BF78060720CB
S2140804106C060720F8B5814B00229A811A615A614A
S2140804201B7813F0800F00F0F0817C4AD288002AEF
S21408043040F0E781E1E113F01F0340F0828077493E
S214080440497806290BD0082973D0002979D1022AC1
S21408045040F0838172480221724B9847DCE16F4B6B
S2140804605A88130A013B0E2B00F26E81DFE813F060
S2140804700F00160034006C016C016C016C016C01F5
S2140804806C016C016C016C016C016C012A00664BF6
S2140804901B6818461978634B984741E0D2B2624BFE
S2140804A01B685B7C934240F258815F4B5B6853F84D
S2140804B03230184659885B4B9847584B9B6802223F
S2140804C05A702DE0584B9B68002B00F04681184662
S2140804D05988544B984723E0D2B2032A00F23D814C
S2140804E0DFE812F007000C009701040004214F4BC8
S2140804F006E04F4804214B4B984711E04D4B0C2122
S2140805001C464D4813F8012B20F8022F1A1BD2B2AE
S2140805108A42F7D34900023147480170414B984751
S2140805203E4BDA889B89934240F276813B4B9A8110
S21408053072E1012A40F0118140480121394B984761
S2140805406AE1012B27D1354949780A2923D1012A9E
S21408055040F00381394B1B78002B00F0FE802F4BB0
S2140805601C79374B1D682B681B79A34240F2F5802F
S21408057020460021334B9847002800F0EE806B6831
S21408058053F82430DB6898472F4B1870184601211B
S214080590244B984740E1022B40F0DF801F4B5B78E6
S2140805A0002B40F0D380022A40F0D7801B4B1879E6
S2140805B0264B9847264B188018460221194B984711
S2140805C02AE113F01F037FD1144A5278013A082A09
S2140805D07AD8DFE812F012007900BD007900090029
S2140805E079007900790041000C4BDB88002B40F03D
S2140805F0B480184A094B1A610EE1084BDB88002BB9
S21408060040F0AB80054B5B88012B40F0A680044A7F
S214080610138823F002031380FEE000BF200707209C
S21408062076060720B9140800E40107201C240800F1
S214080630B4010720880107209801072078060720BC
S2140806406C0607204D0208007406072021150800CE
S2140806507006072035020800714BDB88002B7CD11A
S214080660704B9847002878D06D4B9A786E4B1B686D
S2140806705B7C9A4271DC6D4B9847694B9B786C4A59
S2140806801370002B00F0C88003F10053013B664A44
S214080690526802EBC3006749086052F833301B798A
S2140806A0002B00F0B98000242646634D0F462046EE
S2140806B03146A847002850D00134E4B23B681B688E
S2140806C01B79A342F3D8A7E0012B19D1544A5278D4
S2140806D00B2A15D1524BDB88002B3ED1544B1B7886
S2140806E0002B3AD04E4B1C795D882046534B9847D2
S2140806F0002832D02046E9B24F4B984703462AE0F6
S214080700022B2AD1464B5B78012B02D0032B0CD048
S21408071020E0434BDB8803BB414B5B88EBB9404B7F
S2140807201879474B9847034615E03D4BDB88A3B935
S2140807303B4B5B888BB93A4C2079424B98472079DB
S214080740414B9847034606E0002304E0002302E0F6
S214080750002300E00023002B5FD1314B1B7803F009
S2140807601F03012B1ED1324B1B78DBB12C4B1C7997
S214080770304B1D682B681B79A34213D920460021ED
S214080780324B984770B16B6853F82450EB6898471B
S214080790014620462D4B984720B1AB68984703463C
S2140807A000283AD11E4B1B7803F01F03022B26D1D4
S2140807B01F4B1B78EBB11F4B1A6813681B79D3B114
S2140807C00024224E1B4F536853F82450EB68984772
S2140807D001462046B0470346F8B1AB68984703463B
S2140807E0D8B90134E4B23A6811680979A142EAD85E
S2140807F013E0002311E000230FE000230DE00023A0
S2140808000BE013F0600FA8D115E613F0600FA4D123
S214080810D7E609210E4B73E601231846F8BD00BF3C
S21408082020070720A9140800E40107209103080000
S214080830780607206C0607201D030800B502080086
S21408084029160800091A0800351508004D02080080
S2140808507C010720EFF3108372B6BFF35F8F002189
S2140808600A4A117001210A4A116023B9074B197008
S214080870BFF35F8F62B60222064B1A60064A002351
S214080880136153619381054A137070470602072067
S21408089020C20A4060C10A40200707209D0607209C
S2140808A00522034B1A704FF40022024B1A60704759
S2140808B09D060720F0C10A4003220D4B1A70EFF37D
S2140808C0108372B6BFF35F8F00210A4A11700A4878
S2140808D001210160094A11600821016011602BB9E5
S2140808E00122044B1A70BFF35F8F62B6704700BFD1
S2140808F09D0607200602072060C10A40F0C10A408C
S21408090008B5024B1B6903B1984708BD20070720A6
S21408091038B5EFF3108372B6BFF35F8F0021484AED
S21408092011700121474A116023B9454B1970BFF36E
S2140809305F8F62B6444B1B78032B04D1434B984712
S214080940434B984738BD434B1A88434B9C89A41A97
S214080950A4B2002C2ED141490B8813449BB20B80BD
S2140809603D4AD2889A4202D03D4B1B78C3B1042236
S214080970354B1A70EFF3108372B6BFF35F8F002102
S2140809802F4A1170102237490A6090310A60002BEE
S21408099054D101222A4B1A70BFF35F8F62B638BD56
S2140809A02D4B5B696BB1984758B10022294B1A80CA
S2140809B0294B9C89072C04D90022294B1A70082435
S2140809C002E00122264B1A70234B9A68214B1B889B
S2140809D0EFF31080B0FA80F0400972B6BFF35F8F6D
S2140809E0002517490D702049096811F0020F01D13A
S2140809F05CB913E028B10122114B1A70BFF35F8F60
S214080A0062B60422104B1A7038BD1A44174B12F8F7
S214080A10011B03F8011BD9B2A142F8D30D4A13886B
S214080A201C44148001230F4A13609032136028B1C7
S214080A301A46034B1A70BFF35F8F62B638BD00BF05
S214080A400602072020C20A409D0607200109080062
S214080A50550808009E060720200707209A06072044
S214080A60A006072060C10A4030C10A4000001820CE
S214080A7010B50346047D14F0010F10D0047D6FF303
S214080A8000040475046854B1054850F8220010F4B0
S214080A90807F18BF42F0800208469968A04710BDBC
S214080AA000C10A40F8B5431E03EB43015A4A02EB5D
S214080AB0C102127D12F0010F00F0AD800A465649B9
S214080AC001EBC202D1689268914275D0521AB2F50B
S214080AD0803F92BF17044FF4803200274F4C54F8DB
S214080AE0205015F4807F14D054F82050C5F3021512
S214080AF00824AC40013C22421BD047F0080703EB11
S214080B004304454D05EBC404257D6FF34105257563
S214080B100FE054F82050C5F3C125012D07D154F82D
S214080B202050C5F302150824AC40A24201D847F06D
S214080B3014073B4C04EB001403EB4305364E06EB58
S214080B40C5056D6829446160EFF31081B1FA81F13B
S214080B50490972B6BFF35F8F0026324D2E70E568DE
S214080B6015F0100F1AD147F02107A76003EB4304CE
S214080B70294800EBC400C4681444C46002614FF0FE
S214080B80007202FA03F3284A9361002943D001222F
S214080B90244B1A70BFF35F8F62B6F8BD29B10121E6
S214080BA0204A1170BFF35F8F62B603EB43021A49FF
S214080BB001EBC202D1689160184A52F8202012F45C
S214080BC0807F1FD003EB4302134901EBC202127D5C
S214080BD012F0020F16D00122144B43F82020303BA7
S214080BE053F8203013F4803F1CBF114B43F82020E5
S214080BF00122104B43F820204FF4805383400A4AC2
S214080C009361F8BD024603EB4303034800EBC300B9
S214080C100021094B9847F8BD8006072000C10A4006
S214080C2000C30A400602072000C00A4060C10A4006
S214080C3090C10A40F0C10A40710A080010B4044680
S214080C40002835D11E4B1B787BB31E4B9B7803B907
S214080C50FEE7EFF3108372B6BFF35F8F00211A4AE0
S214080C60117018498A78013A8A70F3B90122164B2E
S214080C701A70BFF35F8F62B617E0124B9B78FF2B94
S214080C8000D1FEE7EFF3108372B6BFF35F8F002143
S214080C900D4A11700B498A7801328A702BB90122E5
S214080CA0094B1A70BFF35F8F62B6054B1C7004E0E1
S214080CB0034B1B78002BF8D1DFE75DF8044B704731
S214080CC09C060720180707200602072010B5EFF332
S214080CD0108472B6BFF35F8F00224B4B1A70282021
S214080CE04A4B98474A4B98474A4B502283F8282342
S214080CF04FF480725A604FF48020474B9847474B12
S214080D00D3F8002822F08072C3F80028D3F8002809
S214080D1042F00072C3F80028D3F8002822F0807248
S214080D20C3F80028D3F8002842F48052C3F80028F5
S214080D30D3F8002842F40042C3F800281A6822F4C0
S214080D4080521A601A6842F440621A60D3F8002883
S214080D5022F48042C3F800281A46D2F8043813F45E
S214080D60804FFAD03DE002222C4BC3F80C282B4BC0
S214080D70D3F8002842F00202C3F80028D3F8002867
S214080D8042F48042C3F80028254B1B78F3B90122A9
S214080D90234B1A700022234B1A70234BDB78FF2B49
S214080DA000D1FEE7EFF3108372B6BFF35F8F002122
S214080DB0154A11701C49CA780132CA704BB901220B
S214080DC0114B1A70BFF35F8F62B602E00020174B14
S214080DD09847BCB901220C4B1A70BFF35F8F62B6F6
S214080DE010BD134A137D03F0FE036FF382031375D9
S214080DF00A4B0222C3F80828D3F8043813F4006F05
S214080E00B1D1B4E710BD00BF0602072031200800A4
S214080E10711B080000E100E0A520080000C00A4099
S214080E20980607209C060720180707203D0C080090
S214080E308006072038B5EFF3108472B6BFF35F8FCD
S214080E400022184B1A700120174B9847174AD2F8F9
S214080E50003823F48043C2F80038D2F8043813F474
S214080E60804FFAD0114B1A6822F480721A6008254F
S214080E709D610121996110229A61042098619D6004
S214080E80986002209860D9609A60D3F8002842F4E7
S214080E908042C3F8002824B9024B1970BFF35F8F4D
S214080EA062B638BD060207203D0C080000C00A409E
S214080EB008B50A4BD3F8002822F48042C3F8002865
S214080EC01A6842F480721A60D3F8002842F4804206
S214080ED0C3F800280020024B984708BD00C00A4007
S214080EE03D0C080010B5914B984758B9904B5B6875
S214080EF013F0010F06D172B6BFF35F8F00228D4B39
S214080F001A7010BD8A4B5B6813F0040F0BD0884B21
S214080F1004229A60D3F8043813F4405F40F07A82CB
S214080F20854B984710BD824B5B6813F0020F05D0BF
S214080F3002227F4B9A60804B984710BD7C4B5B68BB
S214080F4013F4805F00F059827C4B10221A60082246
S214080F501A60F03B1B6813F0040F54D0784B1B78CC
S214080F60002B00F03F82774B9847774B984739E23B
S214080F70764B98470422764B1A6010BD13F8011B6F
S214080F8002F8011F8342F9D1724B984728B96F4B74
S214080F90984704226E4B1A6010BD04226C4B1A60E8
S214080FA06D4B93F90030002B0ADA00236B4A138046
S214080FB06B4A13800222624B1A706A4B984710BD20
S214080FC0654BDB8813B9684B984710BD0022634B06
S214080FD01A80634B1A800121594B197010215C4BFB
S214080FE01960EFF3108372B6BFF35F8F5148027033
S214080FF05E4A1160002B40F00D8201220270BFF39A
S2140810005F8F62B610BD5A4B1B6813F0010F07D0EE
S214081010584B1B6813F0010F02D0524B984710BD6F
S214081020534B1B6813F0020F00F0A880444B1B7844
S214081030012B0BD0022B01D0042B02D1414B984731
S21408104001E0424B9847404B984710BD484B1868FC
S214081050C0F30A50404B9B89414A14882218934291
S214081060AEBF80B21B1B98B23B4B9A68B0B1631EEA
S2140810701A44414B13F8011B02F8011FD9B28142EA
S214081080F8D30444A4B2364B1C80082806D1324B49
S214081090DA88324B1B8823449A4211DC2E4B9C81FB
S2140810A05B693BB1984728B9284B98470222284BDA
S2140810B01A6010BD0222264B1A602B4B984710BDAB
S2140810C0254B9B89A34218D1234B5B692BB91F4B31
S2140810D0984702221E4B1A6010BD984728B91B4B2A
S2140810E0984702221A4B1A6010BD1C491C4A1088E1
S2140810F00B8803440B8000231380154B02221A60CA
S21408110010221A60EFF3108372B6BFF35F8F0020C9
S2140811100849087015490A60002B40F07B810122B7
S214081120044B1A70BFF35F8F62B610BDB920080073
S21408113000C00A4006020720D903080020C20A4059
S2140811409D0607200109080055080800A1080800A0
S21408115060C10A4015040800200707209A060720E1
S2140811609E06072011090800B9080800F0C10A40C1
S21408117030C10A40C0C10A4000001820A64B1B68B0
S21408118013F0080F12D00822A44B1A60303B1B68D5
S21408119013F0010F40F03E81A14B1B78032B40F063
S2140811A039814FF400229F4B1A6010BD9A4B1B687A
S2140811B013F0100F00F021811022984B1A60303B74
S2140811C01B6813F0020F40F02581954B1B78012B06
S2140811D002D1954B984710BD042B40F01B814FF465
S2140811E00022904B1A6010BD904B5B6813F0007F8E
S2140811F017D08F4BDB6813F0010F40F00B814FF0D0
S21408120000728A4B5A6103F54473DB681A0C04D0E3
S2140812108849CB689B1ACB608B600120864B984721
S21408122010BD824B1B6913F4005F00F0ED80834B02
S2140812301B6813F0010F11D0814B1B6813F0010FC8
S2140812400CD0804B01221A607F490A604FF4804117
S2140812501960784800217D4B984710BD774B1B686E
S21408126013F4805F00F0D080754B1B6813F4405F62
S21408127040F0CA804FF48052724B1A604FF4005206
S214081280A3F509735A616B4B1A7D6FF382021A75C0
S2140812906F4A136823F4007313606E4B4FF40022F2
S2140812A01A604FF480221A6010BD604C0823A360B1
S2140812B0604801210A46654B9847674B984723685C
S2140812C023F07F032360236843F080032360634A88
S2140812D0136823F4CB5323F01C031360136843F0FE
S2140812E002031360E36943F00103E361EFF310833D
S2140812F072B6BFF35F8F0021594A1170494A04211C
S2140813001160022111604FF48052A2612BB90122AC
S214081310534B1A70BFF35F8F62B6524B984710BD97
S214081320424B1B6913F0010F19D0404B5B6813F052
S214081330010F14D03D4BD3F8002822F48042C3F89E
S214081340002801225A6110229A61D3F8002842F434
S2140813508042C3F800280020434B984710BD334B03
S2140813601B6913F0100F1ED0304B5B6813F0100F7C
S21408137019D02E4AD2F8003823F48043C2F8003831
S214081380134603E05A6812F0010F04D1D3F8042874
S21408139012F4804FF6D0254B10225A61012098612E
S2140813A0314B984710BD214BD3F8043813F0020F81
S2140813B030D01E4BD3F8002822F48042C3F8002809
S2140813C00222C3F80828D3F8002842F48042C3F85B
S2140813D00028D3F8043813F4006F14BF234B244BAB
S2140813E0984710BD0C4B1B68C3F30A53082B7FF4B1
S2140813F0BFAD204A204B2148C0E50C4B1B6913F0B3
S214081400007F7FF4F1AE0CE7084B5B6813F0080F1B
S21408141086D04AE710BD00BF30C10A4060C10A4006
S2140814209D060720F0C10A40B908080000C00A4017
S21408143010C30A4080060720A50A0800C4C10A404F
S21408144034C10A4024C20A4064C10A40710A08002E
S21408145004C10A40F4C10A409103080000C10A40CA
S21408146006020720550808003D0C0800350E08003F
S214081470B10E08001F0707200000182008001820D3
S214081480084B1A6822F080021A601A6800F07F007B
S21408149022F07F0202431A601A6842F080021A603D
S2140814A0704700BF00C00A40024B186800F07F0073
S2140814B0704700BF00C00A40014B9860998170478A
S2140814C02007072000F00F02012A21D870B511481E
S2140814D0C369012101FA02F423EA0403C36100F593
S2140814E0807050F8223023F0020340F82230551E50
S2140814F0094C05FA01F6701904EBC000074B98472B
S214081500354404EBC504237D6FF38203237570BD51
S214081510704700BF00C00A4080060720710A08000E
S21408152000F00F00024B53F82000C0F3C04070478D
S214081530C0C10A4000F00F03012B57D8324A52F8B0
S214081540232012F4002F53D130B4591E01EB410466
S2140815502E4A02EBC402127D12F0040F4AD112F092
S214081560010F49D1EFF31082B2FA82F2520972B62D
S214081570BFF35F8F0025264C257010F0800F1DD016
S214081580244850F8230010F4405F17D001EB4101BF
S2140815901E4800EBC101087D40F0040008754FF4B2
S2140815A080511D4840F8231099401C4B99612AB376
S2140815B001202070BFF35F8F62B622E0184850F80B
S2140815C0231021F4007140F823104020154941F8F3
S2140815D023004FF40020903141F8230082B1012007
S2140815E00B4B1870BFF35F8F62B60AE00020704797
S2140815F001207047012004E0002002E0012000E0FE
S214081600012030BC704700BFC0C10A4080060720D2
S2140816100602072030C10A40F0C10A4000C00A404E
S21408162000C10A4060C10A4010B500F00F0001284A
S2140816304ED8431E03EB43012C4A02EBC102127D2F
S21408164012F0040F48D00A46284901EBC202117D61
S2140816506FF38201117582004FF48051244C44F8D0
S21408166020108140A4F508746161224951F82010C1
S21408167011F4002F14D02049515811F0400F06D00D
S21408168040201E4950504FF48020903150504FF45F
S2140816900020174950501A48115841F4007111504B
S2140816A003EB4302114901EBC202127D12F0010F4F
S2140816B010D008465900CA1800EBC202147D6FF312
S2140816C0000414750B4450F833309847012010BDB9
S2140816D0002010BD012010BD8200064951F82010D8
S2140816E011F4002FC7D1012010BD00BF80060720C7
S2140816F020C20A40C0C10A4030C10A4060C10A4040
S21408170000C10A4000F00F00012863D8F8B5364C2F
S214081710E569012484402C425ED0344C54F82040BD
S21408172014F4002F5AD1441E04EB4406304D05EB42
S214081730C6052D7D15F0040F52D1EFF31085B5FAC6
S21408174085F56D0972B6BFF35F8F0027294E37708F
S21408175004EB4406264F07EBC606367D16F0010F47
S21408176009D0002D3ED00122224B1A70BFF35F8F9E
S21408177062B60020F8BD04EB44061D4F07EBC6060C
S214081780377D47F0010737752DB10126194D2E70A4
S214081790BFF35F8F62B6164F04EB4405ED007E1963
S2140817A07260B3600022F2603261069A7A5119B903
S2140817B0B3FA83F35B0900E0012304EB44040C4A04
S2140817C002EBC404227D63F3410222750A4B984754
S2140817D00120F8BD002070470020F8BD0020F8BDA5
S2140817E00020F8BD0020F8BD00C00A40C0C10A406D
S2140817F08006072006020720A50A08002DE9F047FC
S21408180082B000F00F04012C00F2E180794BDB690E
S21408181027460125A5401D4040F0DB8011F0030354
S21408182000F0D980022B05D9032B40F0D4804FF066
S214081830000801E04FF001084FEA840CDFF8BCE12D
S2140818405EF8246026F4CB5626F01C06C90201F47E
S214081850C05100F08000002818BF4FF48075A2F52C
S21408186080639BB2B3F57C4F04D3082A05D953008E
S214081870013B03E040F2FF7300E00F23B3FA83F363
S21408188041EA880848EA0505C3F11C0345EA03133C
S21408189023F4D06323F00303DB04DB0C33434CF858
S2140818A00E30012606FA07F296B2002C40F0998010
S2140818B0504BDB6913F0020F00F0938042F00206EB
S2140818C0B6B24C4AD36923F00203D36102F582729A
S2140818D0136823F00203136083E046FA04F313F058
S2140818E0010F6ED004F1FF3E0EEB4E0307EBC30369
S2140818F01A7D02F001016FF300021A75A00000EBD2
S214081900050C55F8243043F0020345F82430DFF878
S214081910E490D9F81C200123A3401343C9F81C30CF
S21408192058F8243013F4802F19D10EEB4E03324AA0
S21408193052F83350002D50D0DCF8003013F4807F76
S21408194018BF44F080040EEB4E0E2B4B03EBCE0E66
S2140819500120DEF80C102246A847002046E055F87D
S214081960243043F4007345F8243051B30EEB4E028E
S21408197007EBC20202F10801D36812699B1A4B6092
S214081980425912F4807F14BF44F0800AA2464FEAF8
S2140819904E0909EB0E0C07EBCC0C9CF81410DCF87F
S2140819A00420DCF808C0CE4457F83E0000905046A5
S2140819B0C1F340011A44C3EB0C03DFF844C0E04708
S2140819C068B10134E4B2012C87D901200EE000206A
S2140819D00CE000200AE0002008E0002006E00020D6
S2140819E004E0054F054DDFF81C8076E702B0BDE839
S2140819F0F08700BF00C00A408006072000C10A40E2
S214081A000517080030C10A4070B500F00F02541ED2
S214081A104FF00073A34015494B61154B03EB0213B7
S214081A2000259D604FF4805393404B6110F0800F63
S214081A3013D093000F4818440F4D1D444FF400561A
S214081A4001F5E071194404E02E600B6813F4005F9A
S214081A50FBD1036813F4405FF6D104EB440407484F
S214081A6000EBC4000121064B984770BD00C00A4031
S214081A7000C30A4030C10A40F0C10A408006072069
S214081A80710A080038B51446374A127812F0800FE3
S214081A903FD012F0600226D1334D6D78062D22D144
S214081AA0324B9847837A212B4FD12F4B5B881B0AE2
S214081AB0212B0BD12C4B00F109029A60417ADA8867
S214081AC08A4228BF0A469A81012038BDC27B9A42BC
S214081AD03DD1254B9C60D988028A8A4228BF0A468F
S214081AE09A81012038BD202A33D11F4A5278022A0B
S214081AF005D0032A08D0012A2DD1984738BD1A4B9D
S214081B0098600120988138BD174B9960012098810C
S214081B1038BD02F06002202A1FD1134A52780A2ADA
S214081B2005D00B2A09D0092A19D1984738BD0E4B7B
S214081B305B881B0A0370012038BD0B4BDB8883B912
S214081B40094B5B880B70012038BD002038BD00208B
S214081B5038BD002038BD002038BD002038BD002024
S214081B6038BD002038BD00BF2007072079030800CD
S214081B7008B5044B98470020034B9847034B9847F3
S214081B8008BD00BF19200800852008009920080015
S214081B9010B50E480E4B984700203E210D4B98472F
S214081BA00D4CA0470028FCD00C4B98470C4A0D4B10
S214081BB09A620D4CA0470028FCD010200B4B984783
S214081BC00B4B98470148024B984710BD00BD0105CE
S214081BD0A5000720951F0800E91F0800F91F080040
S214081BE0013F0D2000060E40092008002D1F0800A2
S214081BF07D21080010B54FF40042164B5A600B20A2
S214081C00154CA0470C20A0470D20A0470E20A04743
S214081C103B204FF06051114CA04755204FF06051C3
S214081C20A04756204FF06051A04768200C49A047AF
S214081C305C200C49A0470C484FF440710B4A0C4BEB
S214081C4098472B204FF00061A0472A204FF00061EC
S214081C50A04710BD501A0E4031200800191D080074
S214081C607900002801000028000E0E400100000838
S214081C70ED1D08004264B1F1805F16D004D8C1B1EA
S214081C80B1F1006F0AD013E0B1F1405F11D0B1F1A5
S214081C90605F0ED0B1F1205F0AD17047036F016F05
S214081CA00B4023EA0203036702E0036F134303674C
S214081CB042607047416412F0010F14BF4166016626
S214081CC012F00A0F14BF0162416212F0020F02D02E
S214081CD0C0F8801004E012F0080F18BFC0F884108F
S214081CE041610160704700BF10B44164019C0CB1AB
S214081CF0416600E001660BB1016500E041650AB186
S214081D00016300E04163016101605DF8044B7047C0
S214081D10C06C7047806C704770B582B00D4643093A
S214081D2003F5001303F207735C0201F0F043B3F106
S214081D30205F30D006D8B3F1006F0AD0B3F1805FC9
S214081D4018D049E0B3F1405F30D0B3F1605F2DD0D2
S214081D5042E000F01F000126864020464FF0006152
S214081D6032461F4B984715F0010F14BF6666266665
S214081D70012032E000F01F000126864020464FF082
S214081D8080513246164B984715F0010F14BF666609
S214081D902666012021E000F01F030126204606FAE9
S214081DA003F12A460F4B9847304616E000F01F030B
S214081DB0012605F0605205EA06010091204606FA5B
S214081DC003F1B2F1605F14BF00220122C5F380035D
S214081DD0054CA047304600E0002002B070BD00BFAA
S214081DE0751C0800B51C0800E91C080070B582B010
S214081DF006460D46144602F0F043B3F1205F26D09F
S214081E0006D8B3F1006F0AD0B3F1805F13D034E080
S214081E10B3F1405F1FD0B3F1605F1CD02DE04FF0E8
S214081E2000612A46164B984714F0010F14BF7566D2
S214081E303566012022E04FF080512A46104B98471D
S214081E4014F0010F14BF75663566012016E00D4BB9
S214081E509847012012E004F0605204F00103009352
S214081E6030462946B2F1605F14BF00220122C4F34F
S214081E708003054CA047012000E0002002B070BD9A
S214081E80751C0800B51C0800E91C08002DE9F0417F
S214081E90044688460E4B9847054620460D4B9847FD
S214081EA0054013D00C4C04F160062368434508D15E
S214081EB06168294205D0E36840469847636825EA82
S214081EC00305B44202D01034002DEED1BDE8F081EF
S214081ED0111D0800151D0800A406072008B50248AD
S214081EE00B21024B984708BD000E0E408D1E0800B9
S214081EF008B502480C21024B984708BD00100E4052
S214081F008D1E080008B502480D21024B984708BDEB
S214081F1000120E408D1E080008B502480E21024B1E
S214081F20984708BD00140E408D1E0800184A136B0B
S214081F3023F0700318431063936E13F0080F03D052
S214081F4009E0013B03D11EE04FF4006310498A6E96
S214081F5012F0080FF5D00E4A136B23F0030343F074
S214081F6002031363906E10F0080004D00020704738
S214081F70013B03D109E04FF4006305498A6E12F06D
S214081F80080FF5D07047012070470120704700BF42
S214081F9000060E4038B111490B6A114A1A40114B17
S214081FA013430B6270470D4A136A23F45C1323F03D
S214081FB0030343F45C1343F00103090289B20B439D
S214081FC01362936E13F0010FFBD0044A136A43F0B2
S214081FD09B7343F480331362704700BF00060E40BD
S214081FE0FCFFC8FE02003701024B986E00F48030F2
S214081FF0704700BF00060E404FF00052014B9A6231
S214082000704700BF00060E40024B986E00F00200B4
S214082010704700BF00060E404FF44412034BDA61C7
S2140820201A46936E13F0400FFBD0704700060E401A
S2140820302C281ED81F280CD8114B9A6901238340D8
S2140820401A40934217D0012383400D4A136100209B
S21408205070470B4BD3F808212038012383401A40D9
S21408206093420AD001238340054AC2F80031002073
S214082070704701207047002070470020704700BF57
S21408208000060E40000200F4706040F00100014BAC
S2140820909863704700060E402022014B1A6070476E
S2140820A000060E40034A136FC0F31200034313677B
S2140820B0704700BF00060E40024B187880F00100FB
S2140820C0704700BF14070720FEE700BF08B51F4B80
S2140820D01F4A9A4203D01F4B1C4A9A4204D31E4BEF
S2140820E01E4A9A4210D31BE018490A1D1C4B9B1A1D
S2140820F023F003030433164A134452F8040B41F83A
S214082100040B9A42F9D1EAE7164B174AD21A22F07C
S21408211003021A44043B002143F8041B9342FBD1F4
S214082120124B23F0604222F07F0211498A6003F1C5
S2140821306043B3F5801F03D28B6843F000538B606F
S2140821400C4B98470C4B9847FEE700BF000007204B
S21408215050240800380607203807072038060720C6
S2140821603B0607203C0607203B0707200000080020
S21408217000ED00E0DD220800992208003E4B1B6BAC
S21408218003F00303032B5FD8DFE803F0020E2B2BC4
S2140821903A4B5B6913F0800F14BF4FF400424FF4BC
S2140821A0FA42374B1A604FE0334B1B6A13F0807FB6
S2140821B003D0344A324B1A6046E0334A304B1A6032
S2140821C02D4B1B6A03F07003102B02D0202B04D073
S2140821D03AE02E4A2A4B1A6036E02A4A284B1A60FA
S2140821E032E0254B1B6A13F0807F03D0254A244B28
S2140821F01A6012E0244A224B1A601F4B1B6A03F02F
S2140822007003102B02D0202B04D006E01F4A1C4B6C
S2140822101A6002E01B4A1A4B1A60174B1B6B03F036
S2140822200303022B0DD1144A936A926A1448C3F327
S2140822300A41036801FB0333D2B2B3FBF2F303602F
S21408224002E0134A0E4B1A600B4B1B6B03F070032D
S214082250702B07D10A4A13680E49A1FB03135B08C3
S21408226013607047044B1A6B0549C2F302120B68D9
S214082270D3400B60704700BF00060E40101A0E4091
S21408228008020720001BB70000093D0000127A006C
S214082290001C4E0EABAAAAAA70B50B4B984701268F
S2140822A00A4B1E70BFF35F8F62B6094DA847094BED
S2140822B000241C705C709C70DC701C715E71A847F2
S2140822C0054B9847204670BD911B0800060207205C
S2140822D0F51B0800180707208503080070B50F4E81
S2140822E00F4D761BB61018BF002405D0013455F8DC
S2140822F0043B9847A642F9D10A4E0B4D00F096F8D3
S214082300761BB61018BF002406D0013455F8043BD7
S2140823109847A642F9D170BD70BD00BF38240800A2
S214082320382408004024080038240800024B13B15B
S214082330024800F005B87047000000004D2308006A
S214082340014600200246034600F016B838B5084B8A
S214082350084DED1AAC1018BFED1805D0013C55F81D
S214082360043D9847002CF9D1BDE8384000F068B81D
S2140823704C240800502408002DE9F047254C064652
S21408238025688846D5F8484192469946C4B3606899
S2140823901F2817DC411C76B104EB8003C3F888A01D
S2140823A0D4F88851012282401543022EC4F8885179
S2140823B0C3F808911ED0831C6160002044F823806F
S2140823C0BDE8F087144B03B34FF4C870AFF3008032
S2140823D00446D0B1D5F84831002784E88800384646
S2140823E0C5F848410121C4F88871C4F88C71002EDC
S2140823F0E1D0D1E7D4F88C311A43C4F88C21DAE757
S21408240005F5A674C5F84841C1E74FF0FF30BDE8AA
S214082410F08700BF28240800000000003030303164
S214082420000000004300000010020720F8B500BFB7
S214082430F8BC08BC9E4670472D2308001901080002
S214082440F8B500BFF8BC08BC9E467047F500080003
S2140824504FF48063204A136002F5007213601F4B26
S2140824601B6A13F0807F07D11D4A1C4B1A621A4656
S214082470936E13F0010FFBD01A4A184B1A621A46CD
S214082480936E13F4803FFBD0144A136B23F00303B8
S21408249043F001031363936E13F0080FFBD0124A40
S2140824A00E4B9A621A46936E13F0020FFBD0112257
S2140824B00A4B1A631A46936E13F0080FFBD01222C3
S2140824C0064B1A631A46936E13F0080FFBD0074A9A
S2140824D0074B1A60704700BF000A0E4000060E4001
S2140824E00908370009083701013F0D2000BD01051E
S2140824F0080207201B4B984206D800231A4A136086
S21408250002F5007213607047184B984207D84FF4CC
S2140825108073154A136002F5007213607047144BF7
S214082520984207D84FF400730F4A136002F50072FA
S214082530136070470F4B984207D84FF440730A4A07
S214082540136002F50072136070470B4B984294BFF5
S2140825504FF480634FF4A063034A136002F50072D9
S21408256013607047BFEA2101000A0E407FF0FA02A6
S214082570FF8FD003FFB3C4047F4A5D050501090633
S214082580A101050719E029E7150025017501950839
S21408259081028101190029651500256575089506CB
S2140825A081000508190129051500250175019505FD
S2140825B0910295039101C0009D0108005101080091
S2140825C0CD01080055010800000000004D6F646545
S2140825D06C4D5553420000004C6577697320506F68
S2140825E0727465720000000000030000000000001E
S2140825F000000000000000000000000000000000CE
S21408260000000000040309040902220001010080FA
S214082610320904000001030001000921110100012C
S214082620223B00070581030800020000B8010720C6
S214082630F0010720F4010720DC0107200000000055
S2140826406801072012010002000000086666254897
S214082650000101020301010000093D00000000001E
S21408266000000000FC04072064050720CC050720AE
S214082670000000000000000000000000000000004D
S214082680000000000000000000000000000000003D
S21408269000000000242408000000000000000000DD
S2140826A0000000000000000000000000000000001D
S2140826B0000000000000000000000000000000000D
S2140826C000000000000000000000000000000000FD
S2140826D000000000000000000000000000000000ED
S2140826E000000000000000000000000000000000DD
S2140826F000000000000000000000000000000000CD
S21408270000000000000000000100000000000000BB
S2140827100E33CDAB34126DE6ECDE05000B00000080
S214082720000000000000000000000000000000009C
S214082730000000000000000000000000000000008C
S214082740000000000000000000000000000000007C
S214082750000000000000000000000000000000006C
S8040820CD06
